:020000040800F2
:10000000000003206D060008592400085B24000846
:100010005D2400085F24000861240008000000003F
:1000200000000000000000000000000071910008C6
:100030006324000800000000019200088B8A000879
:10004000BD060008BD060008BD060008BD06000884
:10005000BD060008BD060008BD060008BD06000874
:10006000BD060008BD060008BD060008BD06000864
:10007000BD060008BD060008BD060008BD06000854
:10008000BD060008BD060008BD060008BD06000844
:10009000BD060008BD060008BD060008BD06000834
:1000A000BD060008BD060008BD060008BD06000824
:1000B000BD060008BD060008BD060008BD06000814
:1000C000BD060008BD060008BD060008BD06000804
:1000D000BD060008BD060008BD060008BD060008F4
:1000E000BD060008BD060008BD060008BD060008E4
:1000F000BD060008BD060008BD060008BD060008D4
:10010000BD060008BD060008BD060008BD060008C3
:10011000BD060008BD06000865240008BD060008ED
:10012000BD060008BD060008BD060008BD060008A3
:10013000BD060008BD060008BD060008BD06000893
:10014000BD060008BD060008BD060008BD06000883
:10015000BD060008BD060008BD060008BD06000873
:10016000BD060008BD060008BD060008BD06000863
:10017000BD060008BD060008BD060008000000001E
:10018000BD060008BD060008BD060008BD06000843
:10019000BD060008BD060008BD060008BD06000833
:0C01A00071240008BD0600087D24000842
:1001B00010B5054C237833B9044B13B10448AFF3A1
:1001C00000800123237010BDC00300200000000048
:1001D0009063020808B5034B1BB103490348AFF312
:1001E000008008BD00000000C403002090630208E6
:1001F00001F0FF01102A2BDB10F0070F08D010F8D8
:10020000013B013A8B422DD010F0070F42B3F6D1DB
:10021000F0B441EA012141EA014122F007047FF0F4
:1002200000070023F0E80256083C85EA010586EA4B
:10023000010685FA47F5A3FA87F586FA47F6A5FA87
:1002400087F68EB9EED1F0BC01F0FF0102F0070293
:1002500032B110F8013B013A83EA010313B1F8D13E
:100260000020704701387047002D06BF354603381F
:10027000073815F0010F07D1013015F4807F02BF58
:10028000013015F4C03F0130F0BC0138704700BFA9
:10029000034613F8012B002AFBD1181A01387047C6
:1002A0007BB972B90029BEBF00204FF0004106E0C3
:1002B00008BF00281CBF6FF000414FF0FF3000F076
:1002C000D3B9ADF1080C6DE904CE002909DB002B90
:1002D0001ADB00F04DF8DDF804E0DDE9022304B09C
:1002E0007047404261EB4101002B1BDB00F040F8FE
:1002F000DDF804E0DDE9022304B0404261EB410196
:10030000524263EB43037047524263EB430300F0F6
:100310002FF8DDF804E0DDE9022304B0404261EB90
:1003200041017047524263EB430300F021F8DDF8CE
:1003300004E0DDE9022304B0524263EB430370475B
:1003400053B94AB9002908BF00281CBF4FF0FF313C
:100350004FF0FF3000F088B9ADF1080C6DE904CE24
:1003600000F006F8DDF804E0DDE9022304B0704790
:100370002DE9F047089D8E4604468846002B4AD159
:100380008A42174662D9B2FA82F64EB1C6F120030C
:1003900001FA06F820FA03F3B74043EA0808B4402C
:1003A0004FEA174E1FFA87FCB8FBFEF1230C0EFB39
:1003B000118843EA084301FB0CF29A4209D9FB1861
:1003C00001F1FF3080F0EA809A4240F2E780023982
:1003D0003B449A1AA3B2B2FBFEF00EFB102243EA92
:1003E000024300FB0CFC9C4509D9FB1800F1FF32CD
:1003F00080F0D6809C4540F2D3803B44023840EAEE
:100400000140A3EB0C0300211DB1F3400022C5E91C
:100410000032BDE8F0878B4205D90DB1C5E9000176
:1004200000210846F5E7B3FA83F1002946D1734568
:1004300002D3824200F20581841A6EEB030201208E
:100440009046002DE5D0C5E90048E2E7002A00F01B
:100450009080B2FA82F6002E40F0A4808A1A030C33
:100460004FEA174E80B2BCB20121B2FBFEFC0EFB7C
:100470001C2243EA024304FB0CF29A4207D9FB1800
:100480000CF1FF3802D29A4200F2E080C4469B1A77
:10049000B3FBFEF20EFB123340EA034302FB04F40B
:1004A0009C4207D9FB1802F1FF3002D29C4200F2B5
:1004B000CA8002461B1B42EA0C40A5E7C1F1200698
:1004C0008B4022FA06F71F430EFA01F420FA06F3D6
:1004D0002EFA06FE4FEA1749234300FA01F81FFAE5
:1004E00087FCBEFBF9F01C0C09FB10EE44EA0E443D
:1004F00000FB0CFEA64502FA01F209D93C1900F1F5
:10050000FF3A80F09C80A64540F2998002383C4436
:10051000A4EB0E041FFA83FEB4FBF9F309FB1344AA
:100520004EEA044403FB0CFCA44508D93C1903F132
:10053000FF3E80F08280A4457FD9023B3C4443EAE1
:100540000040A4EB0C04A0FB02EC64457346E146BA
:1005500062D35FD05DB1B8EB030264EB090404FA27
:1005600006F622FA01F31E43CC40C5E900640021DF
:100570004FE7B1FBF2FC010C41EA0E4180B240EAC8
:1005800001423B4638463C46B846BE462026B1FBB3
:10059000F7F1A2EB080241EA0C4166E7014618E7D1
:1005A00010462CE7C6F120022EFA02F3B740B14004
:1005B00020FA02F24FEA174E0A43B3FBFEF8BCB230
:1005C0000EFB1833110C41EA034108FB04F9B0405B
:1005D00089454FEA104380B23ED9791808F1FF3CB3
:1005E00001D289451FD8A1EB0901B1FBFEF909FB36
:1005F00004F80EFB191192B242EA0142424529D297
:10060000BA1809F1FF31C4D24245C2D2A9F10201A0
:100610003A44BEE7F0459DD2BEEB02036CEB070CFB
:100620000138E14696E7A7EB09094944A8F1020C15
:10063000B1FBFEF909FB04F8DBE773467FE75046A0
:1006400066E70846FDE63B44023A33E7ACF1020CAC
:100650003B441CE749469CE7A1EB0901C446B1FBBA
:10066000FEF909FB04F8C4E7704700BFDFF834D097
:10067000002103E00C4B5B58435004310B480C4BFA
:1006800042189A42F6D30B4A02E0002342F8043B98
:10069000094B9A42F9D305F019FC24F043FF01F00D
:1006A00095F870470000032050A9090800000020B9
:1006B000B0010020C003002074520120FEE7704703
:1006C00008B500F0B9FDBDE8084000F03DBD00F000
:1006D000B5BD704710B50421044623F00EF920463D
:1006E00010BD000038B50C4B0C4C18800C4B822010
:1006F00019806368984740F6110398420AD1094D62
:1007000023682C60822098472B688220DB689847FA
:10071000002038BD0120FCE7E603002098000020FF
:10072000E4030020E80300204FF4A071F020FFF75D
:10073000D9BF0000F7B5394D2B6804461B698220EC
:100740009847208000284ED02B680DF106025B6987
:1007500001A982209847324B1B78002B4BD0BDF863
:10076000062040F674639A423FD9ADF80630BDF8D2
:1007700006209B1A9BB20A2B42D90B22B3FBF2F341
:10078000284A1288934201D9013A93B2BDF8042055
:10079000254840F6B8318A4234D8C2F571620E322B
:1007A000016892B20F25B2FBF5F2204D2D88AA42C6
:1007B00084BF05F1FF35AAB28A4215468EB22AD906
:1007C000921B91B21A4E3768BB42BAB28CBF9A1ACA
:1007D000D21A92B211440529C4BF05603360036880
:1007E00063803368A38003B0F0BDB32A9CBFB422FA
:1007F000ADF80620BBE7BDF80630A3F5B473B9E742
:100800000023C3E7C2F56D62083292B20E2A016876
:10081000C8D800252A46891A89B2D3E7E803002000
:1008200020230020E4030020E0030020E603002052
:10083000DC03002037B568460D461446FFF77AFF03
:10084000BDF8000030B1BDF802302B60BDF80430B7
:100850002360012003B030BD032821D8DFE800F079
:10086000020B12190F4B1A68B2FA82F252090421D4
:100870000D4805F0D5BF0B4B5A68B2FA82F2520907
:100880000821F5E7074B9A68B2FA82F25209102163
:10089000EEE7044BDA68B2FA82F252092021E7E768
:1008A000704700BFEC03002000100240032821D84D
:1008B000DFE800F0020B12190F4B1A68003A18BF5C
:1008C000012204210D4805F0ABBF0B4B5A68003ADA
:1008D00018BF01220821F5E7074B9A68003A18BFB4
:1008E00001221021EEE7044BDA68003A18BF01221A
:1008F0002021E7E7704700BFEC0300200010024012
:1009000003280DD8DFE800F00206080A0421054894
:1009100005F08BBF0821FAE71021F8E72021F6E760
:10092000704700BF0010024008B5032811D8DFE867
:1009300000F0020A0C0E0421074805F06BFF431E6D
:100940005842584108BD0821F6E71021F4E720215C
:10095000F2E70020F3E700BF0010024070B5084D39
:1009600000240126E0B2FFF7DFFF18B12B68012B4E
:1009700018BF2E600134052C05F10405F2D170BDBD
:10098000EC030020012380F8781080F8793070475C
:100990007047002070470000034B4164003918BFC6
:1009A00001211970704700BFE3400120704700200B
:1009B0007047836B0BB10846184770474FF6FF70BE
:1009C0007047406803689B691847704770477047D5
:1009D0007047704710B5044600F046FD2368034990
:1009E000D3F890302046BDE810401847000000D0F2
:1009F00008B503680446D3F8843098472368204636
:100A0000DB6F984700F0ECF8236820465B6F98474F
:100A1000292001F0B3F900F0E3F8236820465B6F6A
:100A20009847F8E710B504460BF098F9236820467C
:100A3000D3F8BC30BDE81040184700F0F9BC00F016
:100A4000FDBC00F02FBD00F0CFBC00F03FBD00F0BA
:100A500047BD00F0D3BC0AF0AFBB10B584210446FB
:100A600022F04BFF204610BD10B590F8341090F8DE
:100A700078400C4B8C421A7809D03AB90A4A0B4993
:100A80001488088810800C8001221A7010BD002A7A
:100A9000FCD0054A05491488088810800C80002283
:100AA000F3E700BFDC400120D8400120DA400120FC
:100AB00070B50D46194635B9094B0A4A0A4840F245
:100AC000FF2123F00BFFC0E90F52084B003A18BF7B
:100AD00001221A700368BDE87040D3F890301847BF
:100AE000006402083864020886640208E2400120BB
:100AF00008B5094B1B888B4203D8084B1B889342CF
:100B000005D9074B074A0848A32123F0E7FE074B06
:100B10001980074B1A8008BDD8400120DA40012017
:100B2000CB6402082E65020886640208DE400120BC
:100B3000E0400120034690F87A0018B15868036835
:100B40001B68184770470000012108B500220846BD
:100B500008F024F80A4B186028B90A4B0A4A2821E1
:100B60000A4823F0BBFE00220421012008F0B5F85A
:100B7000074B186018B9074B034A2C21F0E708BD52
:100B80000004002071650208BA650208E9650208E0
:100B9000FC03002023660208024B4FF0FF31186867
:100BA00008F046B800040020014B186808F06CB843
:100BB00000040020024B0021186808F039B800BF7B
:100BC00000040020FFF7F0BF034804490068002339
:100BD0001A4608F0BDB800BFFC0300200400002046
:100BE00013B5084C00231A4601A9206808F0E1F863
:100BF00020684FF0FF33002201A908F0DAF802B0B4
:100C000010BD00BFFC03002003685B6C1847012087
:100C1000704703689B6A1847FEE740F2EF30704761
:100C2000054B0360054B4FF08062C3F88820BFF38B
:100C30004F8FBFF36F8F7047C074020800E100E070
:100C400010B504464FF45A61FFF7EAFF204622F040
:100C500054FE204610BD000082B0002301930E4BCD
:100C60001A6B42F400021A631A6B02F4000201923A
:100C7000019A1A6942F400021A611A6922F4000208
:100C80001A61064B064A1A61064A5A61064B4FF032
:100C900080629A6002B0704700380240FC24002055
:100CA000F90E0008190C000800E100E008B50A2858
:100CB00009D8DFE800F006100E0808080810101028
:100CC0001000022008BD054B054A0648902123F07C
:100CD00005FE0020F6E70120F4E700BF6566020884
:100CE00080660208CB66020838B50C46887FFFF79D
:100CF000DDFFA58AE28A164B2169586342EA054264
:100D00005A64628BD963521B1A642568082D0ED170
:100D10009A611A615862207F0E4A42EA0062DA61E3
:100D2000E2681A620C4A5961D9601A6038BD002223
:100D3000D8611A61E1680A0A480902F4784200F4AD
:100D4000FC600243C1F3C4010A439A63034AECE71F
:100D500000B002400900010001230200012303004A
:100D600008B50B280BD8DFE800F00612100A0A0AB3
:100D70000A0808080808022008BD0520FCE7054B02
:100D8000054A06486F2123F0A9FD0020F4E7012061
:100D9000F2E700BF6566020803670208CB66020837
:100DA0002DE9F04191F81D800C464046FFF7D8FF31
:100DB000A77F05463846FFF7D3FF06463846FFF7BC
:100DC00075FFA18A628B444B521A1A649A61228B76
:100DD000521A1A61E28A586342EA01425A6421694E
:100DE0006268D963DA602068802828D0227F0FD813
:100DF000202867D0402865D004281AD0364B45EA11
:100E0000026545F40035B845DD6161D0334A44E000
:100E1000B0F5807F04D0B0F5007FEFD1304800E01E
:100E2000304840EA0262DA61E2681A625E62596141
:100E300032E045EA026242F40032DA61F6E7A06885
:100E4000021DDA62227F45EA026545F40035DD6164
:100E50005E625961017841B1012921D0224B234AB8
:100E600023484FF48D7123F039FDDA69418822F46B
:100E70007F42013922F0100242EA0122DA610121A7
:100E8000154BDA6942F02002DA61DA699206FCD485
:100E900010229A600029B9D0164A1A60BDE8F08184
:100EA000B2F1FF01DA69408822F47F4200F1FF309D
:100EB00022F0100242EA002242F0100218BF012183
:100EC000DA61DDE745EA0262034B42F40032B4E73F
:100ED00042F20132E1E700BF00B00240012301000D
:100EE000090002000A0002004D6702086767020855
:100EF000CB66020801230200024B1B685868036896
:100F00005B691847E440012070B5044625460A4B4A
:100F10000C30002660602672667245F8203B602225
:100F200029460BF071F804F55A63EE6024359D42B2
:100F3000FBD1204670BD00BFC0740208034B1A6885
:100F4000D207FCD423229A60704700BF00B0024051
:100F50007047000030B50F4C2568ED07FCD4232501
:100F60000904A56041F001010225FF2B656361645E
:100F7000E0630AD00849656241EA0363E361074B15
:100F800022626061E060236030BDE561039BA36382
:100F9000034BF8E700B00240090001000100020025
:100FA0000100030030B50E4C2568ED07FCD4232565
:100FB0001204A56042F001020225FF2B6563626402
:100FC000E063E16008D01B0643F00213E361054BC8
:100FD00065626061236030BD034BE3610123F9E783
:100FE00000B0024001000200020002FF30B50B4CCD
:100FF0002568ED07FCD4232512041B06A56043F4E5
:101000000033022542F0010265636264E063E1603F
:10101000E361034B65626061236030BD00B0024054
:1010200001000200012070474020704700EB811052
:101030000830704700EB811008307047012070477E
:1010400040F69850704740F6985303FB0100083073
:10105000704740F6985303FB0100083070470120A9
:1010600070471020704700EB01100830704700EB0C
:10107000011008307047084601F016BD10B5034B4B
:101080000360044609F0EFFD204610BD78750208A4
:1010900010B50446FFF7F2FF2046482122F02DFC50
:1010A000204610BD10B5034B0360044609F0DBFD7C
:1010B000204610BD4475020810B50446FFF7F2FF44
:1010C00020464FF45A6122F018FC204610BD000063
:1010D00010B5034B0360044609F0C5FD204610BD62
:1010E0001075020810B50446FFF7F2FF20461821DC
:1010F00022F003FC204610BD10B5084B03600446E7
:1011000000F6CC50FFF7BAFF04F12C00FFF7CAFF3E
:1011100004F11400FFF7DCFF204610BDAC75020897
:1011200008B50248FFF7E8FF08BD00BFDC12002049
:1011300010B50446FFF7E0FF204640F6747122F038
:10114000DCFB204610BD00002DE9F34101F010FA50
:10115000054601F011FA002401462346284622469E
:10116000009413F037FB274B274A1A60204603F000
:101170000FFD264D264B274A27489A6013F092FA16
:101180002B68BFF35B8FDB0735D4284622F0B7FB13
:1011900088B3224C224B236004F6186604F1140035
:1011A00004F12C0804F6CC576060C4F80880E760AE
:1011B000266109F059FD1B4B6361404609F054FD5F
:1011C000194BE362384609F04FFD184BC4F8CC3D8B
:1011D00004F6146003F064FD224604F61461304600
:1011E00003F054FD304601F05FFC114823F094FBFE
:1011F000284622F090FB0F4802B0BDE8F041FFF70F
:10120000E9BB00BF4841012088040020D81200201B
:10121000A80400208C04002008000020DC1200201C
:10122000AC7502081075020844750208787502084A
:101230002111000804040020704700000148FFF756
:10124000D7BB00BF0404002070B5264E264C274DA6
:10125000274B23603046FFF757FE284618F0C0FBA7
:10126000244810F095FF244B2448DC6000224FF402
:101270008071C3E9121222491A86C3E91A12214960
:1012800083F85820C3E91E011F49C3F880101F4985
:101290001F480B60F021C3E90422C3E90622C3E919
:1012A0000822C3E90A22C3E90E22C3E91022C3E9D6
:1012B0001422C3E917225A6683F870205A67C3E9DB
:1012C000016501801348018013484FF4A07101802B
:1012D0001248018012490A70012283F83420114A11
:1012E0001A6070BD34050020D4120020A80400202C
:1012F000F06302088C0400200404002000000101B7
:1013000001000001000450001A001400E440012014
:10131000D8400120DE400120DA400120E0400120D9
:10132000DC400120D47302080148FFF779BC00BFFC
:10133000340500200020704781807047C1807047CD
:10134000018170474181704770477047704770470F
:10135000704710B4C4880368121B84885B6D091B36
:1013600012B25DF8044B09B218474FF6FF73838140
:101370004FF0FF3303621368C361106070470020B1
:1013800070478B88838001207047704780F8261053
:10139000704790F82600704710B50022B1F9084058
:1013A000B1F90A10028042808480C18010BD002201
:1013B000028042808280C28070470177704780ED52
:1013C000080A704780F82410704780F8251070478D
:1013D00001207047983070478C30704784307047D8
:1013E0007047704770470000034B902283F85A23E0
:1013F00083F85823704700BF00E100E0094A0A491A
:10140000D3680A48C3F30A03013B9BB20B801169FE
:10141000C1F30A01013901801364536B43F00103E6
:101420005363704700680140522200205022002080
:10143000014BD3F8AC00704700680140024B012219
:10144000C3F8AC105A6270470068014010B52C21F7
:10145000044622F052FA204610BD10B5BC210446C5
:1014600022F04BFA204610BD70B5044609F0F9FE93
:1014700023689D6E0FF024FC01462046A847236890
:10148000054AD3F88C502046AC460023BDE8704096
:10149000A2F51631604700BF00B004D009F0C8BE05
:1014A00009F0D2BE09F08EBE09F0FDBF90F82520EC
:1014B00012B103685B691847704790F825201AB18C
:1014C00090F8242002B1186070470000034B4FF0E1
:1014D00080629A604FF080729A60704700E100E08D
:1014E000084B4FF08062C3F88820BFF34F8FBFF3E3
:1014F0006F8F4FF08072C3F88820BFF34F8FBFF318
:101500006F8F704700E100E070B50023124E8380BA
:10151000124B0360336893F8582005460AB1D86C23
:1015200000B998680368DB6A98473368B0FA80F4BA
:10153000D86C640930B10368DB6A9847002808BF9B
:1015400044F001042CB9064B064A07482C2123F02D
:10155000C5F9284670BD00BFE4400120C0750208EF
:10156000A5670208036802083C68020870B5254EAA
:101570003568BFF35B8F15F0010540D1304622F08E
:10158000BEF900283BD0204C204B256104F13400EB
:10159000C4E90035C4E90255E584A562A58511F0CA
:1015A000DCF804F158000CF0E3F9194BA365204670
:1015B000184B40F8843BFFF7A7FF174BC4F8843063
:1015C0002433C4F88C304FF4C803C4E92835002311
:1015D000C4F8AC30C4F8B030C4F8B430C4F8B83093
:1015E0000E480F4BC4F89050C4F89C50C4F8A85053
:1015F000C4F8983023F090F9304622F08CF9024874
:1016000070BD00BF542200205822002038820208FA
:10161000E075020858760208EC810208E51300081C
:10162000CC81020838B5184C23685BB3174B184AB5
:101630001B6C11888B4216D1164B198805F0F8FEE9
:10164000236893F86A200025013283F86A2083F822
:101650007C50FFF7B9FA20680AF080FB2846BDE805
:101660003840FFF7F9B805F0E3FE24682368204608
:101670001B6A9847012384F87C300020BDE838407D
:10168000FFF714B938BD00BFE440012000680140F5
:10169000522200205022002007B5064BADF806006C
:1016A0001B68054801220DF1060106F071FC03B02C
:1016B0005DF804FB0C000020A82300207FB5164D28
:1016C000164C174E284604F0F5FC204604F0F2FCB8
:1016D0000A21284604F06CFD0A21204604F068FD2A
:1016E000284604F0B8FD3060204604F0B4FD0D4AF1
:1016F0000D4910600346326801A823F0ABFD01A834
:10170000FEF7C6FD0A2382B201A9084807F0D7F800
:10171000642007F037FAD4E78C2500204425002008
:101720001C230020182300209E680208602300204C
:1017300030B595B0102200210AA823F01CFE142217
:10174000002103A823F017FE00241E4B01941A6CFD
:1017500042F080521A641B6C03F080530193019B8A
:10176000194B02941A6842F440421A601B6803F451
:10177000404302930122029B4FF48033CDE90823BA
:1017800002254FF480030821CDE90E534FF4B473C2
:10179000CDE9101308A804231393129505F0A0FEB9
:1017A00005F064FE0F23CDE903354FF4A0504FF44C
:1017B0008053CDE90603052103A8059406F06CF8D3
:1017C00015B030BD00380240007000402DE980485F
:1017D0009BB004F089FBFFF7ABFF142200210DA89A
:1017E00023F0C9FD0024C84B00941A6BC748C84DAC
:1017F00042F010021A631A6B02F010020092009A73
:1018000001941A6B42F020021A631A6B02F0200254
:101810000192019A02941A6B42F080021A631A6BC9
:1018200002F080020292029A03941A6B42F00402C0
:101830001A631A6B02F004020392039A04941A6B5F
:1018400042F001021A631A6B02F001020492049A38
:1018500005941A6B42F002021A631A6B02F002023C
:101860000592059A06941A6B42F040021A631A6BAD
:1018700002F040020692069A07941A6B42F00802A0
:101880001A631B6B03F00803224607933C21079B56
:1018900004F0C6FF9F480122022104F0C1FF224646
:1018A0009C48042104F0BCFF22469B484FF4405161
:1018B00004F0B6FF01263C23CDE90D3693480F9482
:1018C00003230DA90227109304F0C0FE91480DA92F
:1018D000CDE90D76CDE90F4404F0B8FE04238D4820
:1018E0000DA9CDE90D36CDE90F4704F0AFFE0DA9E6
:1018F0004FF440538848CDE90D36CDE90F4704F049
:10190000A5FE8648864B036004F096FDDFF838C2DA
:10191000844B2C62C5E900C328464FF48043C5E9D7
:101920000434C5E90244C5E9064405F087F91021ED
:10193000284605F0CBFB2146284605F0E6FB7A4D0C
:10194000DFF808E2AC624FF48273C5E900E34FF4BC
:1019500000781823C5E9068328460A23C5E902440E
:10196000C5E90444C5E90844EB6206F0B5FA8F23E3
:101970002246394667488DF824308DF8344004F00B
:101980004FFF32464FF47A7309A9284606F000FB50
:101990004FF47A7332460DA9284606F0A5FC32466C
:1019A00039465C48614D04F03BFF9DF83430D32B41
:1019B00004BF5F4B1E705F4B0126C5E900364FF038
:1019C000100840230024C5E904834FF4C073C5E91F
:1019D00006344FF40063C5E908344FF4005302277E
:1019E0004FF0040A4FF0030BAB620DA90723284602
:1019F000CDE90D73CDE90FA34FF00809C5E9024AFF
:101A0000CDE911B7139706F04BF94FF6FF7209A90C
:101A10002846CDE90A96089409960C9406F060F9D8
:101A2000304604F08DFA4FF6FF7209A92846CDE939
:101A30000979CDE90B6406F053F94FF6FF7209A955
:101A40002846CDE909B9CDE90BA406F049F94FF4D0
:101A50000C730893089B0C934FF6FF7209A9284654
:101A6000CDE909A90B9606F03BF940F26A512846E8
:101A700006F054F9342221460DEB020023F07BFCE2
:101A80002D4D2E4B2C61C5E900340923C5E90536DF
:101A90001D23C5E9073B40F20D1240F24313C5E98F
:101AA000092340F2171140F247132846C5E90B13EA
:101AB000C5E90244AC8685F8364005F0C1FBFF213C
:101AC000F022CDE912144FF005094FF480614FF474
:101AD000A073CDE90E24CDE91419CDE916420DA964
:101AE00022462846CDE91037154D18930D94ADF8D0
:101AF00064408DF8664005F06EFC124B2B601B684D
:101B000098472B6824E000BF0038024000100240D4
:101B1000A824002000080240000C02403C250020C0
:101B200000300240A0860100A82300202C230020C2
:101B300020230020400100A0002400200068014074
:101B40001423002060000020005C00400050014091
:101B50003F4DDB6898473F4B2846C5E90034C5E94F
:101B60000274C5E90A47C5E90C4404F075FC314626
:101B7000284604F027FD384D384F424621460DA82F
:101B800023F0F9FB364B2C614FF4803B4FF0007A89
:101B90002846C5E9003BC5F808A02C7685F820400A
:101BA000EC62AF62EC60EE6185F830406E6104F08B
:101BB000DBF90D230DA92846CDE90D36294D0F94EB
:101BC00004F04CFB424621460DA823F0D4FB264BE3
:101BD000C5F808A02846C5E9003BC5E90A742C6190
:101BE0002C7685F82040EC60EE6185F830406E611F
:101BF00004F0BAF90DA92846CDE90D961B4D0F94B6
:101C000004F02CFB1A484FF4E133C0E900530C23D5
:101C1000C0E90534C0E902440461C46106F020FE55
:101C2000FEF74EFDFEF74BFD06F03CFF114A124851
:101C3000214606F063FF114B114A186021461148F6
:101C400006F05CFF104B186006F03EFFFEE700BF99
:101C5000FC24002000B002408C2500200100000F71
:101C600000200140442500200021014000100140D7
:101C700060230020C0760208BD160008282300203B
:101C80009C760208CF060008242300207047704786
:101C90007FB5094B8DF817201B6802930DF11702D1
:101CA0000123009201930A460146044805F06EF8AC
:101CB00007B05DF804FB00BF10000020A82400203E
:101CC0007FB500238DF81730084B1B6802930A4636
:101CD00001230DF11701009101930146044805F01D
:101CE000E5F89DF8170007B05DF804FB1000002030
:101CF000A82400201FB5084C24680092CDE90134C7
:101D00000A4601230146054805F0D0F8003818BFFF
:101D1000012004B010BD00BF10000020A824002046
:101D200004F00EB910B5064C00222046042104F040
:101D300077FD20460122BDE81040042104F070BD6B
:101D40000008024038B50B4D044601220A484FF402
:101D5000005104F065FD00220421284604F060FDD6
:101D60002046FFF799FC28460122BDE838400421AF
:101D700004F056BD00080240000C024038B50B4D7F
:101D8000044600220A484FF4005104F049FD0022A5
:101D90000421284604F044FD2046FFF77DFC284638
:101DA0000122BDE83840042104F03ABD0008024099
:101DB000000C0240F7B5144E144F05460C46304651
:101DC0000022042104F02CFD00224FF4005138467B
:101DD00004F026FD2846FFF75FFC0D4B0D481B68FD
:101DE000224601A906F080FA384601224FF400513C
:101DF000019C04F015FD30460122042104F010FD81
:101E0000204603B0F0BD00BF00080240000C0240B5
:101E10000C000020A823002004F092B80268034BB5
:101E20009A4201D104F07AB8704700BF0010004018
:101E30007047000082B00E4B00220092596C41F4B2
:101E400080415964596C01F48041009100990192DC
:101E5000196C41F0805119641B6C03F0805301939D
:101E6000019B0F216FF0010002B004F0A5BA00BF82
:101E70000038024010B514228AB0044600210DEB50
:101E8000020023F078FA2368214A93421FD1214BA4
:101E90002148002101915A6C42F480725A645A6CB4
:101EA00002F480720192019A02911A6B42F00402CC
:101EB0001A631B6B03F0040302930821029B0323A4
:101EC000CDE9051305A904F0C1FB0AB010BD134A02
:101ED0009342FAD10F4B1248002103915A6C42F4FD
:101EE00000725A645A6C02F400720392039A0491CD
:101EF0001A6B42F001021A631B6B03F00103049397
:101F0000049B20220323CDE9052305A9DBE700BFBD
:101F1000002001400038024000080240002101403A
:101F2000000002400268094B9A4282B00BD10023A4
:101F30000193074B1A6B42F480521A631B6B03F434
:101F400080530193019B02B0704700BF00300240F4
:101F50000038024007B50F4B02689A4216D10022A2
:101F6000A3F5F0430192196B41F4000119631B6B57
:101F700003F40003019305215A20019B04F01CFA8D
:101F80005A2003B05DF804EB04F048BA03B05DF8E2
:101F900004FB00BF00B002402DE9F043044689B0C5
:101FA0001422002103A823F0E6F92268244B9A4268
:101FB00043D1244C244800250095236B43F00403AF
:101FC0002363236B03F004030093009B0195236BB1
:101FD00043F001032363236B03F001030193019B8F
:101FE0004FF012094FF400734FF001080327042645
:101FF00003A9CDE90339CDE90587079604F026FB4F
:102000004FF480731148079603A9CDE90339CDE950
:10201000058704F01BFB0295236C43F40003236443
:10202000236C03F400030293029B236A43F400032E
:102030002362236A23F40003236209B0BDE8F0831E
:10204000005C0040003802400008024000000240EE
:10205000F0B599B004461422002107A823F08BF9AB
:1020600030220DEB0200002123F085F922685E4B3F
:102070009A4240F0B78008230C93C02310930423A6
:1020800012930CA84FF40033159305F0DDFC08B152
:10209000FFF7CEFE554B5648002400945A6C42F090
:1020A00080625A645A6C02F080620092009A019435
:1020B0001A6B42F020021A631A6B02F0200201929E
:1020C000019A02941A6B42F001021A631A6B02F031
:1020D00001020292029A03941A6B42F002021A63FE
:1020E0001A6B02F002020392039A04941A6B42F0F4
:1020F00040021A631A6B02F040020492049A05949B
:102100001A6B42F004021A631A6B02F00402059281
:10211000059A06941A6B42F008021A631B6B03F0CF
:102120000803069302250E26069B0B964FF4806348
:1021300007A9CDE90735CDE9094504F087FA41F64D
:1021400058032C480B9607A9CDE907350927CDE997
:10215000094504F07BFA032327480B9707A9CDE92B
:102160000735CDE9094504F071FA4FF47063224850
:102170000B9607A9CDE90735CDE9094504F066FAC4
:102180004FF40C631D480B9607A9CDE90735CDE93F
:10219000094504F05BFAC02319480B9607A9CDE95D
:1021A0000735CDE9094504F051FA082315480B9687
:1021B00007A9CDE90735CDE9094504F047FA4FF401
:1021C000A0530E480B9707A9CDE90735CDE909457E
:1021D00004F03CFA58202246052104F0EDF858207E
:1021E00004F01CF919B0F0BD00680140003802404D
:1021F00000140240000002400004024000180240A7
:1022000000080240000C024010B5044688B01422B9
:10221000002103A823F0AFF82268144B9A4223D17F
:1022200003F56843002101915A6C114842F4801271
:102230005A645A6C02F480120192019A02911A6B4C
:1022400042F020021A631B6B03F020030293029BEF
:102250004FF4607202230321CDE903230523CDE966
:10226000061303A904F0F2F908B010BD00500140B4
:102270000014024010B5044688B01422002103A8BF
:1022800023F079F82268144B9A4223D103F5943352
:10229000002101915A6C114842F010025A645A6CA4
:1022A00002F010020192019A02911A6B42F00102AF
:1022B0001A631B6B03F001030293029B4FF4C0628D
:1022C00002230321CDE903230723CDE9061303A944
:1022D00004F0BCF908B010BD00100140000002403D
:1022E0002DE9F04186B0002303932B4B1C68002C92
:1022F0004FD14FF00108C3F80080284B00949A6B2F
:10230000274842EA08029A639B6B03EA080300939A
:10231000022703260C25009B01A94FF63F03CDE9B8
:102320000137CDE9046504F091F91E48059501A92E
:10233000CDE90187CDE9034604F088F948F233136B
:102340001948059501A9CDE90137CDE9034604F007
:102350007DF94FF683731548059501A9CDE901373D
:10236000CDE9034604F072F94CF203731048059569
:1023700001A9CDE90137CDE9034604F067F96023EF
:102380000C48059501A9CDE90137CDE9034604F0D4
:102390005DF906B0BDE8F081D42500200038024088
:1023A00000140240000802400018024000100240E1
:1023B000000C02400004024070B588B00023029374
:1023C000204B1A6C42F010021A641B6C03F01003CD
:1023D0000293054601A903A8029B05F017FB069B83
:1023E0004BBB05F0F3FA184E184B336040F2E7335D
:1023F000F360174BB0FBF3F3013B736030460023EF
:102400003361B360B36106F03FF9044680B93046EA
:1024100006F010F8044658B9362003F0FFFF0F2DE0
:102420000DD822462946362003F0C6FF094B1D6011
:10243000204608B070BD05F0C9FA4000D3E701247A
:10244000F6E700BF00380240D82500200010004009
:1024500040420F00C80000207047FEE7FEE7FEE79D
:10246000FEE77047014806F023B800BFD8250020DA
:10247000014804F053BF00BF00240020014804F0CD
:1024800017B800BFFC2400200120704708B523F0D6
:1024900043F8162303604FF0FF3008BD08B523F062
:1024A0003BF816230360FEE770B50D4614460E4652
:1024B000731B9C4201DC204670BDAFF3008006F820
:1024C000010BF5E770B50D4614460E46731B9C4292
:1024D00001DC204670BD16F8010BAFF30080F5E774
:1024E0004FF0FF3070474FF400534B6000207047AF
:1024F00001207047002070470A4A116808B503465A
:1025000009B9094911601068694603448B4206D92C
:1025100023F002F80C2303604FF0FF3008BD136076
:10252000FCE700BF2026002078520120704710B53C
:102530000421044621F0E1F9204610BD08B5032925
:1025400013D8DFE801F002060A0E02F06DFB006806
:1025500008BD02F069FB4068FAE702F065FB80689D
:10256000F6E702F061FBC068F2E70020F0E7000048
:1025700000487047F87602080320704713B500241E
:1025800051B1036801948DF8034001AA9C680DF1D4
:102590000303A04702B010BD0846FBE7C08970479F
:1025A000008A7047C088704780887047807A00F042
:1025B0007F007047807AC009704700207047000094
:1025C0009FED010A704700BF00000000704710B582
:1025D0000821044621F091F9204610BD704770474C
:1025E00000F598730868496803C3704770477047DF
:1025F0004160704770477047064BC0F84C3100236C
:10260000C0F8503100F5A273C0F84801C0F840315D
:10261000704700BFDD280008012303727047704730
:10262000704710B4C26841685410034601EB620061
:10263000D20748BF0A599B685DF8044B48BFD3587E
:1026400018470346406830B19A681AB9D86800F054
:10265000010070470120704710B50C21044621F09D
:102660004CF9204610BD10B51021044621F045F963
:10267000204610BD10B54FF4AE71044621F03DF96F
:10268000204610BD10B54021044621F036F9204601
:1026900010BD10B50EF014FB0368BDE81040DB6BF5
:1026A00018470000054B1B7801462BB1406818B154
:1026B00003680C315B6E1847704700BFE340012090
:1026C000037A70B50546BBB940680368DB69984773
:1026D00004463CB96868036805F10C011B6EBDE84F
:1026E00070401847A1886B8FC91A236820461B6B5E
:1026F00009B29847A469ECE770BD10B50446D0F85C
:10270000400158B10368DB68984738B1D4F84001FC
:1027100003689B6898470023C4F8403110BD70B52A
:10272000044690F8390094F838300130C0B298422D
:1027300084F8390005D901232372002384F8393045
:1027400070BDB4F93A20002110F070FCC30706D523
:1027500000284FF6FF73C8BF0123184400B2238A34
:10276000C01AA08760680368DB69984705462DB9E1
:1027700060680368BDE870405B691847A988A38F4B
:1027800019442B6828461B6B09B29847AD69EEE7E0
:102790002DE9F14FD0E9556A0746B06803681B6A16
:1027A0009847B0F5E07F05D2444B454AA321454800
:1027B00022F094F8706803681B6A98470F2803D8C2
:1027C000414B3F4AA421F2E7F06803681B6A98472F
:1027D0000B2803D83D4B3A4AA521E8E70EF070FAE2
:1027E000DFF8F09004300EF090FAD9F8000010B144
:1027F0000368DB689847D9F8000010B103681B68CC
:102800009847DFF8D480D8F8000010B103685B69FE
:102810009847D7F83C0110B103685B689847D8F82F
:10282000000010B103681B689847D7F83C0110B14D
:1028300003689B689847F068036800215B6A9847C3
:102840004FF0000B224BC0F804B0044680F808B0EB
:102850000360B068036859465B6A9847054603F011
:1028600071F87068036859465B6A984729460646BE
:1028700003F046F8331DC7F83C61C9F80040C8F8BA
:102880000050CAF800302B68C6F808A02846DB685C
:10289000EE639847336830461B68984721462846C0
:1028A00010F0BEFB236820461B69984723685B69CC
:1028B000204601B0BDE8F04F184700BFBC680208D1
:1028C0004A6902081C6A0208636A0208066B020869
:1028D000B87702082C410120284101202DE9F14F51
:1028E000D0E9556A0746B06803681B6A9847B0F597
:1028F000907F05D2444B454AA321454821F0EEFF85
:10290000706803681B6A98470F2803D8414B3F4AF9
:10291000A421F2E7F06803681B6A98470B2803D8E4
:102920003D4B3A4AA521E8E70EF0CAF9DFF8F090EE
:1029300004300EF0EAF9D9F8000010B10368DB6842
:102940009847D9F8000010B103681B689847DFF872
:10295000D480D8F8000010B103685B699847D7F8B5
:102960003C0110B103685B689847D8F8000010B1CB
:1029700003681B689847D7F83C0110B103689B684F
:102980009847F068036800215B6A98474FF0000B96
:10299000224BC0F804B0044680F808B00360B06869
:1029A000036859465B6A9847054602F0ADF97068BE
:1029B000036859465B6A98472946064602F082F941
:1029C000331DC7F83C61C9F80040C8F80050CAF888
:1029D00000302B68C6F808A02846DB68EE639847ED
:1029E000336830461B6898472146284610F018FB8C
:1029F000236820461B69984723685B69204601B01D
:102A0000BDE8F04F184700BFBC680208A96B020878
:102A10001C6A0208636A0208066B0208B87702089B
:102A20002C41012028410120044B1B6893F85820B9
:102A30000AB1D86C00B99868704700BFE440012023
:102A4000F8B5174604460E460EF0FCF9124B1C6012
:102A5000124B2360124B0025C4E95135114BC4E9D8
:102A600053551868036801219B68C4E94F55C4E9B0
:102A700055769847284602F08BF8FFF7D5FF18F0F7
:102A800058FEFFF7D1FF18F0CFFEFFF7CDFF18F08B
:102A9000D7FE2046F8BD00BF384101206477020808
:102AA0004C770208E4400120064BC0F84C3100236B
:102AB000C0F8503100F5A273C0F84801C0F84031A9
:102AC000704700BFDD280008064BC0F84C310023DA
:102AD000C0F8503100F5A273C0F84801C0F8403189
:102AE000704700BF392E0008064BC0F84C31002358
:102AF000C0F8503100F5A273C0F84801C0F8403169
:102B0000704700BFFD2C0008064BC0F84C31002375
:102B1000C0F8503100F5A273C0F84801C0F8403148
:102B2000704700BFC52B0008064BC0F84C3100238E
:102B3000C0F8503100F5A273C0F84801C0F8403128
:102B4000704700BF9127000803685B6A18470000C0
:102B50002DE9F04105460026164B4660067245F801
:102B60000C3B044628460F460AF0AAFF124B84F895
:102B700038701B7884F83960A68723B90123237243
:102B80002046BDE8F0810D4B0D4FB3F90080E3689E
:102B9000B7F900109B6B266128469847E3684146C9
:102BA000DB6B2846984728460AF005FF3B885B42C6
:102BB0006387E5E7DC770208E3400120DA40012083
:102BC000D84001202DE9F047D0E9556A0746B068A2
:102BD00003681B6A9847B0F5E07F05D2404B414A35
:102BE000A321414821F07AFE706803681B6A984768
:102BF0000F2803D83D4B3B4AA421F2E7F068036855
:102C00001B6A98473F2803D8394B364AA521E8E785
:102C10000EF056F8DFF8DC9004300EF076F8D9F8B4
:102C2000000010B10368DB689847D9F8000010B1C4
:102C300003681B689847DFF8C080D8F8000010B11F
:102C400003685B699847D7F83C0110B103685B687B
:102C50009847D8F8000010B103681B689847D7F868
:102C60003C0110B103689B689847F0680021FFF7AA
:102C70006BFF14210446FFF76BFFB0680368002167
:102C80005B6A9847054602F05DFE706803680021A4
:102C90005B6A98472946064602F032FE331DC7F8A4
:102CA0003C61C9F80040C8F80050CAF800302B68F1
:102CB000C6F808A02846DB68EE63984733683046BC
:102CC0001B6898472146284610F0AAF92368204639
:102CD0001B699847236820465B69BDE8F0471847A1
:102CE000BC6802087B6C02081C6A0208636A02085E
:102CF000066B02082C410120284101202DE9F047F4
:102D0000D0E9556A0746B06803681B6A984740F6E1
:102D10009753984205D8414B414AA321414821F09D
:102D2000DDFD706803681B6A98470F2803D83E4B87
:102D30003B4AA421F2E7F06803681B6A98473F28E2
:102D400003D83A4B364AA521E8E70DF0B9FFDFF882
:102D5000E09004300DF0D9FFD9F8000010B10368FD
:102D6000DB689847D9F8000010B103681B689847E2
:102D7000DFF8C080D8F8000010B103685B6998479D
:102D8000D7F83C0110B103685B689847D8F8000099
:102D900010B103681B689847D7F83C0110B103686D
:102DA0009B689847F0680021FFF7CEFE1421044687
:102DB000FFF7CEFEB068036800215B6A98470546BE
:102DC00002F026F97068036800215B6A984729467B
:102DD000064601F0B3FF331DC7F83C61C9F8004057
:102DE000C8F80050CAF800302B68C6F808A028467A
:102DF000DB68EE639847336830461B689847214686
:102E0000284610F00DF9236820461B69984723686F
:102E100020465B69BDE8F047184700BFBC68020860
:102E2000606D02081C6A0208636A0208066B0208E9
:102E30002C410120284101202DE9F047D0E9556AB5
:102E40000746B06803681B6A9847B0F5907F05D2C3
:102E5000404B414AA321414821F040FD706803687E
:102E60001B6A98470F2803D83D4B3B4AA421F2E741
:102E7000F06803681B6A98473F2803D8394B364AE5
:102E8000A521E8E70DF01CFFDFF8DC9004300DF021
:102E90003CFFD9F8000010B10368DB689847D9F807
:102EA000000010B103681B689847DFF8C080D8F8AD
:102EB000000010B103685B699847D7F83C0110B176
:102EC00003685B689847D8F8000010B103681B6876
:102ED0009847D7F83C0110B103689B689847F068A1
:102EE0000021FFF731FE14210446FFF731FEB068E0
:102EF000036800215B6A9847054601F005FF70688A
:102F0000036800215B6A98472946064601F0DAFE0D
:102F1000331DC7F83C61C9F80040C8F80050CAF832
:102F200000302B68C6F808A02846DB68EE63984797
:102F3000336830461B6898472146284610F070F8E1
:102F4000236820461B699847236820465B69BDE8D3
:102F5000F0471847BC680208456E02081C6A020860
:102F6000636A0208066B02082C41012028410120F7
:102F7000406A7047806A704770478A880B8810B52E
:102F8000D20A4C88C1699BB251F8220043EA04433B
:102F9000184410BD10B50446BAB1107B68B1537B1C
:102FA000D27A1B0203F4E0631A43236A03EB820321
:102FB0001A888A4202D193F9020010BD05D801385F
:102FC00080B204330028F3D1F7E70020F5E710B50D
:102FD0002C21044620F091FC204610BD30B58BB06A
:102FE0000446BDF860500895BDF85C5007959DF803
:102FF000505006959DF84C5005959DF84850049505
:103000009DF8445003959DF8405002959DF83C5022
:103010000195BDF8385000950FF05CFC064B23601D
:10302000159BE361169B2362199B63621A9BA36243
:1030300020460BB030BD00BF00780208806A7047A0
:1030400070477047704770477047704770477047C8
:10305000704790F82C304BB100F16C021268C265D9
:103060003BB100F174031B680366704700F168020E
:10307000F4E700F17003F6E730B4C2684468551015
:10308000034604EB6200D20748BF62599B6830BC1C
:1030900048BFD35818470346406830B19A681AB9F8
:1030A000D86800F0010070470120704790F82D307B
:1030B00080F85A30704710B57821044620F01DFC86
:1030C000204610BD10B51021044620F016FC204605
:1030D00010BD10B54FF49071044620F00EFC204650
:1030E00010BD10B50446006B50B10368DB6898470B
:1030F00030B1206B036821469B68BDE8104018473B
:1031000010BD0B7970B590F82C6004460D460BB9D4
:1031100016B170BD002EFCD0B3FA83F35B0984F8BE
:103120002C3023682046D3F88C30984723682046FB
:103130005B699847002EECD02B79012BE9D12368ED
:103140002046D3F88830BDE8704018479830884250
:1031500008B505D10DF0B4FDBDE80840FFF7C4BCCB
:1031600008BD0000074A02600022C0E90122C0E950
:103170000322C0E90522C0E907224FF4807282844D
:10318000704700BF9C85020870B5036804461B6B3E
:10319000154698472368294620465B6BBDE870407A
:1031A000184770B504461D46BDF91060FFF7ECFFE7
:1031B0002368294620469B6B984723683146204662
:1031C000DB6BBDE87040184710B52622044600218D
:1031D00022F0D1F82046FFF7C5FF044B2360FF2300
:1031E00084F826300023A362204610BDFC83020829
:1031F0002DE9FF470446A04600250FF065FD584B1A
:10320000E56348F8403B04F16C074046FFF7DCFFFC
:103210004FF6FF76262229463846ADF80C6022F09C
:10322000AAF83846FFF79EFF4E4BE366BDF80C3018
:10323000A4F8923003A984F89460384604F1980603
:103240000BF042F93046FFF78DFF4FF47F43A4F8AF
:10325000C430012304F1CC0984F8BC30424BC4F8DB
:103260009830C4F8C050C4F8C8504846FFF7ACFFC7
:103270003E4BC4F8CC302A4629464846C4E940555E
:10328000C4E94255C4F8F850A4F8FC50FFF77CFF9D
:103290004946304607F0FAFC354BC4E94434354B17
:1032A000C4E946354FF4A0732A46009329464046A8
:1032B000F023FFF776FF04F1040A4FF07F43A36683
:1032C0004146504607F0E2FC2A4629463846FFF7B9
:1032D0005BFF022303A93846ADF80C300BF0F4F87D
:1032E000394650466E2707F0D1FC2A462946484603
:1032F0000097F023FFF755FF0523A4F8FC301E4B81
:10330000C4F8003103F54C533333C4F80431A3F54A
:10331000CC43663BC4F8083103F1331303F54C5337
:10332000D4F89880C4F80C313046FFF792FE84F848
:10333000C550D8F890303046984704F58873C4F8E3
:10334000C830D222F023294630460097FFF729FFE4
:103350005046314607F09AFC204604B0BDE8F0879D
:103360001C790208CC840208687802086484020888
:10337000047902084D310008996600FF30B50368F2
:1033800085B06D460181D3F8843001460446284655
:10339000984795E807003C3484E8070005B030BD45
:1033A00030B5036885B06D464181D3F8843001465D
:1033B00004462846984795E807003C3484E807000F
:1033C00005B030BD0022028042808280C2807047FA
:1033D00080F83610704770B5036804461B6B1546BD
:1033E00098472368294620465B6EBDE87040184721
:1033F00000207047806C7047704770477047704777
:1034000030B4C26844685510034604EB6200D2072A
:1034100048BF62599B6830BC48BFD3581847034621
:10342000406830B19A681AB9D86800F00100704756
:103430000120704710B54C21044620F05EFA20466A
:1034400010BD10B51021044620F057FA204610BDDB
:1034500010B540F69851044620F04FFA204610BDB2
:1034600008B5FEF723F808BD036870B55E6B124B14
:103470001B6804468DB22BB9104B114A6C211148C0
:1034800021F02CFA1049828D0988914203D80F4B04
:103490000B4A6D21F3E713F812200D4B1B6853F80C
:1034A000220003681B6B9847291A3346204609B24D
:1034B000BDE87040184700BF3C4101202A6F020858
:1034C0006C6F0208A76F020840410120EE6F0208EE
:1034D0004441012000F6A830884208B505D10DF01E
:1034E000EFFBBDE80840FFF70FBB08BD08B529B9E1
:1034F0000DF0E6FBBDE80840FFF716BB08BD000075
:103500004FF480710022818405490160C0E90122E5
:10351000C0E90322C0E90522C0E9072282627047A0
:103520000C8102080022C0E90122C0E90322C0E99F
:103530000522C0E907224FF480728284014A0260AA
:10354000704700BF5079020800224FF0FF31C0E9F8
:1035500000218260704710B50446FFF7F5FF204652
:1035600010BD000038B526220446002121F003FFDB
:103570002046FFF7D7FF0B4B23600B4BA3624FF6A0
:10358000FF730025A3854FF47F03C4E90C532587FF
:1035900004F13C00FFF7D8FF044B2360A5642046EC
:1035A00038BD00BF6C8302083C770208B879020876
:1035B0002DE9F04F0446BBB026464FF0000A0FF04D
:1035C00083FBDE4BC4F83CA046F8403B04F16C079B
:1035D000304604F19805FFF7F7FD3846FFF7F4FD94
:1035E0004FF6FF78262251462846ADF8DC8021F0C0
:1035F000C2FE2846FFF796FFD14BC4F898300DF174
:10360000DC09BDF8DC30A4F8BE304946284684F811
:10361000C0800AF059FF04F1C40318461593FFF760
:103620006FFF04F1F00318461693FFF7CDFD04F584
:103630008E7318461793FFF763FF04F5A4731846BB
:103640001893FFF7C1FD04F5BA7318461993FFF7F5
:1036500057FF04F5D07318461A93FFF7B5FD04F52C
:10366000E67318461B93FFF74BFF04F5FC731846EF
:103670001C93FFF7A9FD04F5097318461D93FFF786
:103680003FFF04F5147318461E93FFF79DFD04F5E4
:103690001F7318461F93FFF733FF04F52A7318466C
:1036A0002093FFF791FD04F5357318462193FFF73A
:1036B00027FF04F5407318462293FFF785FD04F5B4
:1036C0004B7318462393FFF71BFF04F556731846F8
:1036D0002493FFF779FD04F5617318462593FFF7EE
:1036E0000FFF04F56C7318462693FFF76DFD04F584
:1036F000777318462793FFF703FF04F58163184695
:103700002893FFF761FD04F2344318462993FFF72D
:10371000F7FE04F58C6318462A93FFF755FD04F273
:103720008C4318462B93FFF7EBFE04F5976318467E
:103730002C93FFF749FD04F2E44318462D93FFF75D
:10374000DFFE04F5A26318462E93FFF73DFD04F259
:103750003C5318462F93FFF7D3FE04F5AD6318468C
:103760003093FFF731FD04F2945318463193FFF77D
:10377000C7FE04F5B86318463293FFF725FD04F23F
:10378000EC5318463393FFF7BBFE04F5C3631846AA
:103790003493FFF719FD04F2446304F5CE6818462C
:1037A0003593FFF7ADFE4046FFF70EFD04F29C6334
:1037B00018460393FFF7D6FE04F5DD63184604931D
:1037C000FFF7D0FE04F2347318460593FFF7CAFEE4
:1037D00004F5F06318460693FFF7C4FE04F2CC73B9
:1037E00018460793FFF7BEFE04F618031846089321
:1037F000FFF7B8FE04F6640318460993FFF7B2FE1C
:1038000004F50B6318460A93FFF7ACFE04F6FC03BD
:1038100018460B93FFF7A6FE04F6481318460C93C0
:10382000FFF7A0FE04F6941318460D93FFF79AFED7
:1038300004F51E6318460E93FFF794FE04F62C233E
:1038400018460F93FFF78EFE04F678231846109360
:10385000FFF788FE04F6C42318461193FFF782FE93
:1038600004F5316318461293FFF77CFE04F65C33CF
:1038700018461393FFF776FE04F6A8331846029312
:10388000FFF73EFE4FF47F43A4F8D43B012384F8B6
:10389000CC3B2C4BC4F8A83B04F6DC331846C4F8E8
:1038A000D8AB1493FFF790FC274BC4F8DC3B52468F
:1038B0001498C4F808AC5146A4F80CACC4F810AC89
:1038C000C4F814ACC4F818ACC4F81CACFFF75CFC2A
:1038D0001499029807F0DAF91C4BC4F8883D1C4B88
:1038E000C4F8903D4FF4A07352463046C4F88C4D56
:1038F000C4F894AD51460093F02304F1040BFFF794
:1039000050FC4FF07F433146A366584607F0BEF99E
:103910004FF4A0735246384600935146F023FFF708
:1039200040FC6FF44973C4F894303946584607F0A8
:10393000ADF95246284651460CE000BF607A0208B5
:10394000CC8402086878020864840208487A020875
:10395000D5340008FFF718FC28464946ADF8DCA02E
:103960000AF0B2FD2946584607F090F9E12300938A
:1039700044221598CB4F0621FFF713FCF02615992A
:10398000584607F083F950221698009633466FF098
:103990000101FFF706FCC44B1699C4F81831322513
:1039A000584684F816A107F071F92B468222179821
:1039B00000950D21FFF7F5FB1799584607F066F9BA
:1039C0002B469022189800950621FFF7EAFB1899DC
:1039D000C4F87071584607F059F92B46B922199866
:1039E00000950D21FFF7DDFB1999584607F04EF9B8
:1039F0002B46CB221A9800950621FFF7D2FB1A9985
:103A0000C4F8C871584607F041F92B46B9221B98F3
:103A100000954421FFF7C5FB1B99584607F036F97E
:103A20002B46CB221C9800954121FFF7BAFB1C992D
:103A3000C4F82072584607F029F92B4632461D98E3
:103A400000950D21FFF7ADFB1D99584607F01EF9B3
:103A50002B464FF483721E9800950621FFF7A1FBB9
:103A60001E99C4F87872584607F010F92B464B227D
:103A70001F9800954421FFF794FB1F99584607F0C3
:103A800005F92B465522209800954121FFF789FB27
:103A90002099C4F8D072584607F0F8F82B464B220C
:103AA000219800950D21FFF77CFB2199584607F0DE
:103AB000EDF82B465522229800950621FFF771FB61
:103AC0002299C4F82873584607F0E0F82B464B2299
:103AD000239800957B21FFF764FB2399584607F054
:103AE000D5F82B465522249800957C21FFF759FBE9
:103AF0002499C4F88073584607F0C8F82B464B2227
:103B000025980095B221FFF74CFB2599584607F000
:103B1000BDF82B46552226980095B721FFF741FBAB
:103B20002699C4F8D873584607F0B0F82B46B92246
:103B3000279800957B21FFF734FB2799584607F01B
:103B4000A5F82B46CB22289800957C21FFF729FB6E
:103B50002899C4F83074584607F098F82B46324636
:103B6000299800957B21FFF71CFB2999584607F0FF
:103B70008DF82B464FF483722A9800957C21FFF72D
:103B800010FB2A99C4F88874584607F07FF82B4632
:103B900032462B980095B221FFF703FB2B9958462C
:103BA00007F074F82B464FF483722C980095B621D9
:103BB000FFF7F7FA2C99C4F8E074584607F066F856
:103BC0002B4632462D9800954421FFF7EAFA2D99AD
:103BD000584607F05BF82B464FF483722E980095F9
:103BE0004121FFF7DEFA2E99C4F83875584607F0E0
:103BF0004DF82B4682222F980095B221FFF7D1FA7B
:103C00002F99584607F042F82B469022309800959D
:103C1000B621FFF7C6FA3099C4F89075584607F0F8
:103C200035F82B468222319800954421FFF7B9FAE6
:103C30003199584607F02AF82B4690223298009581
:103C40004121FFF7AEFA3299C4F8E875584607F0FB
:103C50001DF82B46B92233980095B221FFF7A1FA3F
:103C60003399584607F012F82B46CB22349800952A
:103C7000B621FFF796FA3499C4F84076584607F013
:103C800005F82B468222359800957B21FFF789FAAB
:103C90003599584606F0FAFF2B46902240467C2183
:103CA000009503E0ABBCD1FF0B3557FFFFF779FA66
:103CB0004146C4F89876584606F0E8FF552206219A
:103CC000039800952B46FFF76CFA4FF0FF33C4F8CA
:103CD000CC36A4F8D0A64846FFF736FC99E8070092
:103CE0000B4F04F5DB6383E807003B6804F542688B
:103CF0002BB9084B084A6021084820F0EFFD084E18
:103D00003388222B10D8074B034A6121F4E700BF08
:103D10003C4101202A6F02082C700208A76F02089C
:103D200040410120EE6F0208D14B2221186800F0BB
:103D30006BFFD04A03460A21404610F0A5FC23231E
:103D40000398C4F8E4864946DFF83083ADF8E030E4
:103D5000CDF8DC800AF05CFA0399584606F096FF2D
:103D60002B46B721049800955522FFF71AFA4FF019
:103D7000FF32C4F81827A4F81CA74846FFF7E4FB55
:103D800099E8070004F2247383E807003B6804F60F
:103D900034420392002BACD033881C2BB3D9B44BE4
:103DA0001C21186800F030FFB24A03460A2103982C
:103DB00010F06AFC039AC4F830271D230498ADF86C
:103DC000E0304946CDF8DC800AF022FA04995846E2
:103DD00006F05CFF2B467C21059800955522FFF7E5
:103DE000E0F94FF0FF32C4F86427A4F868A748460A
:103DF000FFF7AAFB99E8070004F5EE6383E80700E4
:103E00003B6804F648420392002B3FF472AF3388BC
:103E10001E2B7FF678AF964B1E21186800F0F4FE3B
:103E2000944A03460A21039810F02EFC039AC4F822
:103E30007C271F230598ADF8E0304946CDF8DC809B
:103E40000AF0E6F90599584606F020FF2B46412175
:103E5000069800955522FFF7A4F94FF0FF32C4F8F9
:103E6000B027A4F8B4A74846FFF76EFB99E807000F
:103E700004F2BC7383E807003B6804F65C420392DB
:103E8000002B3FF436AF3388202B7FF63CAF784BC6
:103E90002021186800F0B8FE764A03460A210398EC
:103EA00010F0F2FB039AC4F8C82721230698ADF856
:103EB000E0304946CDF8DC800AF0AAF90699584668
:103EC00006F0E4FE2B460621079800959022FFF7A6
:103ED00068F94FF0FF32C4F8FC27A4F800A8484660
:103EE000FFF732FB99E8070004F6080383E80700B0
:103EF0003B6804F54765002B3FF4FBAE33881A2B73
:103F00007FF601AF5A4B1A21186800F07DFE594A1E
:103F100003460A21284610F0B7FBC4F8145837AD01
:103F20001B230798ADF8E0302946CDF8DC80322617
:103F30000AF06EF90799DFF84881584606F0A6FEA8
:103F40003346CB22089800960621FFF72AF94FF056
:103F500000094FF0FF31C4F84818A4F84C982846DF
:103F6000FFF7F2FA95E8070004F6540383E8070028
:103F7000D8F8003004F6844A002B3FF4BAAE3E4F26
:103F80003B88182B7FF6BFAE394B1821186800F01C
:103F90003BFE384A03460A21504610F075FB374A6B
:103FA0000898C4F860A8192329463792ADF8E03084
:103FB0000AF02EF90899584606F068FE334640F29A
:103FC0000912099800960621FFF7EBF84FF0FF3130
:103FD000C4F89418A4F898982846FFF7B5FA95E81D
:103FE000070004F50A6383E80700D8F8003004F6F8
:103FF000984A002B3FF47DAE3B88162B7FF683AEAC
:104000001B4B1621186800F0FFFD1A4A03460A21CF
:10401000504610F039FB194A0998C4F8ACA8172388
:1040200029463792ADF8E0300AF0F2F8099958467F
:1040300006F02CFE334690220A9800964121FFF7A5
:10404000B0F84FF0FF31C4F8E018A4F8E49828461F
:10405000FFF77AFA95E8070004F6EC0383E8070017
:10406000D8F8003004F6AC4A002B3FF442AE09E029
:104070004841012077700208404101203C77020846
:104080003C4101203B88142B7FF63DAED34B1421DD
:10409000186800F0B9FDD24A03460A21504610F0D4
:1040A000F3FAD04A0A98C4F8F8A81523294637929B
:1040B000ADF8E0300AF0ACF80A99584606F0E6FD93
:1040C000334690220B9800967C21FFF76AF84FF058
:1040D000FF31C4F82C19A4F830992846FFF734FAB8
:1040E00095E8070004F6381383E80700D8F8003095
:1040F00004F54C6A002B3FF4FCAD3B88122B7FF695
:1041000002AEB64B1221186800F07EFDB44A034699
:104110000A21504610F0B8FAB24A0B98C4F844A9E4
:10412000132329463792ADF8E0300AF071F80B9965
:10413000584606F0ABFD334690220C980096B92104
:10414000FFF72FF84FF0FF31C4F878192846A4F88C
:104150007C99FFF7F9F995E8070004F6841383E8E2
:104160000700D8F8003004F6D445002B3FF4C1AD69
:104170003B88102B7FF6C7AD984B1021186800F0D4
:1041800043FD974A03460A21284610F07DFAC4F8F9
:10419000905937AD934A0C98379211232946ADF8C0
:1041A000E0300AF035F80C99584606F06FFD3346BA
:1041B000CB220D9800964121FEF7F3FF4FF0FF311F
:1041C000C4F8C419A4F8C8992846FFF7BDF995E8C2
:1041D000070004F51D6383E80700D8F8003004F6F3
:1041E000E84A002B3FF485AD3B880E2B7FF68BAD64
:1041F0007A4B0E21186800F007FD794A03460A2120
:10420000504610F041FA774A0D98C4F8DCA90F2304
:1042100029463792ADF8E03009F0FAFF0D9958467B
:1042200006F034FD3346CB220E9800967C21FEF733
:10423000B8FF4FF0FF31C4F8101AA4F8149A2846BA
:10424000FFF782F995E8070004F61C2383E80700CE
:10425000D8F8003004F6FC4A002B3FF44AAD3B8806
:104260000C2B7FF650AD5D4B0C21186800F0CCFC98
:104270005B4A03460A21504610F006FA594A0E9846
:10428000C4F828AA0D2329463792ADF8E03009F08A
:10429000BFFF0E99584606F0F9FC3346CB220F9823
:1042A0000096B621FEF77DFF4FF0FF31C4F85C1A8F
:1042B000A4F8609A2846FFF747F995E8070004F646
:1042C000682383E80700D8F8003004F5516A002B12
:1042D0003FF40FAD3B880A2B7FF615AD3F4B0A210B
:1042E000186800F091FC3E4A03460A21504610F03F
:1042F000CBF93C4A0F98C4F874AA0B23294637928D
:10430000ADF8E03009F084FF0F99584606F0BEFC86
:1043100033464FF48372109800964121FEF741FF17
:104320004FF0FF31C4F8A81AA4F8AC9A2846FFF75A
:104330000BF995E8070004F6B42383E80700D8F8E2
:10434000003004F6245A002B3FF4D3AC3B88082BF2
:104350007FF6D9AC214B0821186800F055FC204AA3
:1043600003460A21504610F08FF91E4A1098C4F8EF
:10437000C0AA092329463792ADF8E03009F048FF7A
:104380001099584606F082FC4FF483727C211198F4
:1043900000963346FEF705FF4FF0FF33C4F8F43ABA
:1043A0002846A4F8F89AFFF7CFF895E8070004F537
:1043B000306383E80700D8F8003004F63855002B46
:1043C0003FF497AC3B88062B7FF69DACDFF80C8062
:1043D000044FD8F80000062106E000BF4841012044
:1043E000777002083C77020800F00EFC614A034631
:1043F0000A21284610F048F9C4F80C5B37AD0723B2
:104400001198ADF8E0302946379709F001FF11996E
:10441000584606F03BFC4FF0FF3A33464FF48372A8
:10442000B62112980096FEF7BCFEA4F8449BC4F88F
:1044300040AB2846FFF788F895E8070004F64C33B0
:1044400083E807004C4B1B684E4604F64C59002B82
:104450003FF44FAC494A1388042B7FF654AC042137
:10446000D8F8000000F0D0FB424A03460A21484633
:1044700010F00AF91298C4F8589B29464FF0050924
:104480003797ADF8E09009F0C3FE1299584606F050
:10449000FDFB1B2308227F21139800936F23FEF757
:1044A00080FEC4F88CABA4F8906B2846FFF74CF85C
:1044B00095E8070004F6983383E807002E4B1B6845
:1044C00004F5566A002B3FF414AC2C4A1388022BD7
:1044D0007FF619ACD8F80000022100F095FB254AC0
:1044E00003461421504610F0CFF803231398C4F864
:1044F000A4AB2946ADF8E0302825379709F088FEAF
:104500001399584606F0C2FB32463146149800957E
:104510009123FEF746FE1A4BC4F8103C03F54C53AA
:104520003333C4F8143CA3F5CC43663BC4F8183CC1
:1045300003F1331303F54C530298C4F81C3CA4F860
:104540000C9CFEF786FD04F68853C4F8D83B02980D
:1045500084F8D56B84F8026C9123232200955D21A9
:10456000FEF71FFE5846029906F090FB20463BB02E
:10457000BDE8F08F777002083C41012040410120E6
:10458000996600FF70477047704730B4C26844684E
:104590005510034604EB6200D20748BF62599B687E
:1045A00030BC48BFD35818470346406830B19A68BA
:1045B0001AB9D86800F0010070470120704710B5A3
:1045C000102104461FF099F9204610BD10B54FF494
:1045D000E07104461FF091F9204610BD00F5887087
:1045E000884208B505D10CF06BFBBDE80840FEF72A
:1045F0006BBA08BD2DE9F04F04468BB0A2460025EA
:104600000EF062FB9B4BE5634AF8403B5046FEF7D9
:10461000DBFD04F16C0304F19807184603934FF691
:10462000FF78FEF7D1FD262229463846ADF82080D6
:1046300020F0A1FE3846FEF775FF8F4BC4F8983086
:10464000BDF82030A4F8BE3004F1C406384684F822
:10465000C08008A909F038FF26222946304620F0FC
:104660008AFE3046FEF75EFF844BC4F8EC304FF410
:104670007F03C4F8F830824BC4F8C4304FF0FF33E6
:10468000C4E941354FF47F43A4F83C3140F20113B3
:1046900004F5A27BA4F834317A4BA4F8F080C4F876
:1046A0001031C4E94555C4E94755C4E94955C4E941
:1046B0004B55C4F8F450A4F8FC50C4F80051C4F8A9
:1046C0000C51C4F83851C4F840515846FEF77CFDEF
:1046D0006D4BC4F844312A4629465846C4E95E5514
:1046E000C4E9605504F58879C4F87051A4F8745190
:1046F000FEF74AFD5946484606F0C8FA634BC4E93E
:104700006C34634BC4E96E354FF4A0732A465046AF
:1047100000932946F023FEF744FD04F104084FF00E
:104720007F435146A366404606F0B0FA4FF4A073AB
:104730002A46039800932946F023FEF732FD554B95
:10474000C4F894300399404606F0A0FA2A46384649
:104750002946FEF719FD4FF0010A384608A9ADF8C1
:1047600020A009F0B1FE3946404606F08FFA20231A
:1047700090220093352176233046FEF712FD4FF04C
:10478000FF33C4F8F430D4F8C430A4F8F85004AFC0
:104790003846D3F884303146984797E8070004F547
:1047A000807383E807003C4B1B6804F5C4772BB982
:1047B0003A4B3B4A60213B4820F090F83A4B1B882B
:1047C0001BB93A4B364A6121F5E7394B294618683F
:1047D00000F01AFA374A0346142138460FF054FF06
:1047E000264BC4F80C7108A930460893ADF824A0F4
:1047F00009F00EFD31464046592606F047FA2A4692
:10480000294658460096F023FEF7CBFC0523A4F872
:104810007431294BC4F8783103F54C533333C4F861
:104820007C31A3F5CC43663BC4F8803103F13313EC
:1048300003F54C53D4F81071C4F884314846FEF7A0
:1048400008FC84F83D51D7F890304846984704F565
:10485000D873C4F84031E722F02329464846009631
:10486000FEF79FFC4046494606F010FA20460BB082
:10487000BDE8F08FAC7A0208CC8402083C770208CD
:10488000B87902086878020864840208947A0208F9
:10489000DD450008CFF3FAFF3C4101202A6F0208F2
:1048A0002C700208A76F020840410120EE6F020839
:1048B0004841012077700208996600FF70470000A8
:1048C00030B5164D2C6814F001048FB0BFF35B8F28
:1048D00021D128461FF013F8E8B1114B0893114B72
:1048E000114912480594CDE9064301220423CDE97C
:1048F00003321E2300930A222023CDE90B44CDE985
:104900000944CDE90144FEF769FB094820F004F8A9
:1049100028461FF000F805480FB030BD24260020BF
:1049200024A0020834A00208F49D020828260020D2
:10493000BD4800087047000030B5164D2C6814F0D3
:1049400001048FB0BFF35B8F21D128461EF0D7FF43
:10495000E8B1114B114912480594CDE90B43114BB5
:104960000893114B0122CDE906430423CDE903321C
:10497000142300930A22CDE90944CDE90144FEF74E
:104980002DFB0A481FF0C8FF28461EF0C4FF04484C
:104990000FB030BD54260020D87A0208809E02084D
:1049A0005826002028A0020838A00208354900082F
:1049B0007047000030B5164D2C6814F001048FB01C
:1049C000BFF35B8F21D128461EF099FFE8B1114B50
:1049D000114912480594CDE90B43114B0893114B33
:1049E0000122CDE906430423CDE9033219230093C4
:1049F0000A22CDE90944CDE90144FEF7EFFA0A485D
:104A00001FF08AFF28461EF086FF04480FB030BD15
:104A100084260020D87A02080C9F020888260020ED
:104A20002CA002083CA00208B14900087047000011
:104A300030B5164D2C6814F001048FB0BFF35B8FB6
:104A400020D128461EF05BFFE0B1114B0893114BBB
:104A5000114912480594CDE9064301220423CDE90A
:104A600003320A2300931A46CDE90B44CDE90944E9
:104A7000CDE90144FEF7B2FA09481FF04DFF284680
:104A80001EF049FF05480FB030BD00BFB42600201E
:104A900030A0020840A00208989F0208B826002013
:104AA0002D4A000800207047002070470EB403B55F
:104AB00003AB002153F8042B01930DF089F902B0E8
:104AC0005DF804EB03B070470CB407B504AB53F8C2
:104AD000042B01930DF07CF903B05DF804EB02B0F8
:104AE00070470000436C10B5044673B3038F2BB9B5
:104AF000184B194AC52119481FF0F0FEC38E00EB70
:104B000043035B8C0BB30FF016F8238F012B03D8F4
:104B1000134B144ACB21EEE7E28E531C9BB2092BB8
:104B2000194688BFA3F10A0104EB410140F63F108A
:104B3000498C814209D10A2B04EB420228BF002391
:104B400004EB4303508C588451842046BDE8104048
:104B50000EF0F4BE7A700208837002082E7102080B
:104B600078710208867102080EF0AFBE10B586B0EB
:104B700002AC84E806001A460AAB05930193099B30
:104B800000932146089B0BF039FC06B010BD0000D5
:104B900038B518BB124B13481C681349B4B12268CE
:104BA00022440260626822440A60A26814440F4BE7
:104BB00000221A8000F038F8054600F033F80C4B5C
:104BC0001C600C4B1D600C4B188007E00B4B036006
:104BD0000B4B0B600B4B1C68002CE8D138BD00BFA1
:104BE000F0260020E8260020E4260020EC26002005
:104BF0003C4101204441012040410120D4A0020851
:104C000044A00208DCA00208044B1B6853F82100F2
:104C1000034B1B6803EB4000704700BFE4260020F5
:104C2000E82600202420704700487047F426002022
:104C300010B5FFF781FE064C2060FFF741FE606073
:104C4000FFF7F6FEA060FFF7B5FEE06010BD00BF05
:104C5000F426002010B5002404600C6014601C6071
:104C600010BD704710B54FF4AE7104461EF045FEFE
:104C7000204610BD10B50446D0F8580100F013F8D6
:104C80002046BDE810400CF09DB8000010B5044669
:104C9000FDF7D6FE014B2360204610BD387F020889
:104CA00000220260704770477047043870477047B1
:104CB00010B5102104461EF020FE204610BDA0F1C4
:104CC0000400F5E700228260024A02601832426066
:104CD000C16070478C7F02087047000010B5034B1D
:104CE00003600446FEF7B3F9204610BDB47F020806
:104CF00010B50446FFF7F2FF20464FF490711EF006
:104D0000FCFD204610BD000010B50446FEF770FA09
:104D1000014B2360204610BDB47F0208FEF798B90E
:104D2000704704387047704710B5102104461EF0D4
:104D3000E4FD204610BDA0F10400F5E700228260EA
:104D4000024A026018324260C1607047E87F020880
:104D5000704700001B4B1968A1F16502302A10B59D
:104D6000194C0FD8194B1B68653B302B0AD8002310
:104D70002360164B1B68962B1CDD302A11D8036864
:104D80009B6B0BE02368012B0BD0104B96291B6803
:104D900008DD653B302BECD803685B6B984701233B
:104DA000236010BD6329E4DC653B302BE1D8036848
:104DB000DB6BF3E7632BF4DC302AF2D803681B6B60
:104DC000ECE700BF1C2300205C000020182300201B
:104DD00010B5034B03600446FEF710FB204610BDE0
:104DE0001080020810B50446FFF7F2FF204640F697
:104DF00098511EF082FD204610BD000010B50B4AF0
:104E000086B00446D11F02A800901EF038FE07238A
:104E10000193009B0022DA71694620461EF0D4FD02
:104E200068461EF016FE204606B010BD5F720208EE
:104E3000F0B500F14C0100F10C04002085B00746EC
:104E4000A4F110021546002355F8046F36B10DF198
:104E5000100C0CEB830C01334CF8106CA542F3D111
:104E6000032B10DD6D4652F8046F55F8043B1360B8
:104E70009E4218BF0120A242F5D102F110048C42DB
:104E8000DED105B0F0BD4DF823700133E8E7F0B591
:104E900000F10C0200F14C01002085B00746141D02
:104EA0000323A2F10C0654F8045D35B10DF1100C8A
:104EB0000CEB830C013B4CF8105CB442F3D1002B9B
:104EC00012DAA2F110036D4653F8046F55F8044B43
:104ED0001C60A64218BF01209342F5D103F11002D5
:104EE0008A42DCD105B0F0BD4DF82370013BE6E706
:104EF000F0B5034600F11005002085B006460021FC
:104F00000A4653F821402CB104AF07EB8207013267
:104F100047F8104C04311029F3D1032A12DD6C46F6
:104F2000002253F8227054F8041B43F82210043274
:104F30008F4218BF0120102AF3D10433AB42DED1D7
:104F400005B0F0BD4DF822600132E6E7F0B503464A
:104F500000F11006002085B0074619460322A3F190
:104F600040050C6B34B10DF1100C0CEB820C013AC6
:104F70004CF8104C1039A942F3D1002A12DA6C46D1
:104F8000002253F8225054F8041B43F82210043234
:104F90008D4218BF0120102AF3D10433B342DCD173
:104FA00005B0F0BD4DF82270013AE6E730B5034692
:104FB00000F10C0100F14C04A1F1100252F8040FB1
:104FC00028B38A42FAD102F11001A142F4D103F1CF
:104FD00010000021A0F110020023032B03D0D2E91E
:104FE0000054A54212D0032904D0156850F823407C
:104FF000A5420BD00133042B02F10402EDD10131A3
:10500000042900F11000E5D1012000E0002030BDAE
:1050100010B50446FEF7CCFA014B2360204610BDC4
:105020001080020830B5204D00F563740246136805
:1050300052F8041F61F31E03D2F8301681EA5301BF
:1050400013F0010318BF2B465940944242F8041C48
:10505000EDD1154D021F00F22C64D2E9E43161F369
:105060001E0352F8041F81EA530113F0010318BF15
:105070002B464B409442C2F88C33EED1D0F8BC3969
:105080000268094962F31E03D0F8302682EA53020F
:1050900013F0010318BF0B465A400023C0F8BC2987
:1050A000C0F8C03930BD00BFDFB00899D0F8C039B2
:1050B000B3F51C7F10B5044601D3FFF7B3FFD4F856
:1050C000C03909485A1CC4F8C02954F82320074B9A
:1050D00082EAD22203EAC213534000EAC3305840A6
:1050E00080EA904010BD00BF0000C6EF80562C9DA6
:1050F000F0B5264803681446DA07ADF6CC1D0D4618
:10510000BFF35B8F20D41EF0FAFBE8B101A8FFF7D4
:1051100075FE01A81EF01AFC1D4B1E4E18600121E1
:1051200018461A6882EA927206FB02120131B1F542
:105130001C7F43F8042FF4D1C0F8C01913481EF0A7
:10514000EAFB01A81EF000FC661B731C1AD0104875
:10515000FFF7ACFF0136A0FB06309E4208D92C1B9E
:10516000013C0B4FB4FBF6F206FB12449C4203D801
:1051700028440DF6CC1DF0BD3846FFF797FFA6FB7F
:105180000030F3E70248FFF791FFF1E70427002022
:10519000082700206589076CF0B591B004460F46DA
:1051A000FFF746FE0026054604F10C0204F14C0010
:1051B000B446A2F10C03196853F804EF714502BF1D
:1051C0004FEA410E43E901EC06EB41069A42F2D167
:1051D00010328242EDD12046FFF72AFE284340D00C
:1051E00003230022211F51F8230030B910A800EB3F
:1051F00082005D1E40F8405C013254F8230028B95B
:1052000010A800EB8200013240F8403C0433132B1D
:10521000E9D1002A25DD013A00213846FFF768FF71
:1052200010AB03EB8000072250F8405C0021781C93
:10523000FFF75EFF002D2B46B8BFEB1C9B1004EB65
:1052400003146B4203F0030305F0030558BF5D42EE
:105250000628054BD4BF0020012053F8203044F825
:105260002530304611B0F0BD14000020084B10B5B9
:10527000196804460748FFF78FFF074A136803447D
:10528000136023682046DB6ABDE81040184700BF62
:10529000CC3000201C000020D0300020F0B591B0B0
:1052A00004460F46FFF7F3FD00260546224604F1AB
:1052B0004000B44602F10C03196853F804ED71453F
:1052C00002BF4FEA410EC3E900CE06EB41069A4207
:1052D000F2D110328242EDD12046FFF7D8FD2843AB
:1052E00040D000231A46211D54F8230028B910A8E5
:1052F00000EB8200013240F8403C51F8230030B905
:1053000010A800EB82005D1C40F8405C01320433C1
:10531000102BE9D1002A25DD013A00213846FFF79C
:10532000E7FE10AB03EB8000072250F8405C002141
:10533000781CFFF7DDFE002D2B46B8BFEB1C9B1041
:1053400004EB03146B4203F0030305F0030558BF9D
:105350005D420628054BD4BF0020012053F82030C1
:1053600044F82530304611B0F0BD00BF14000020D5
:10537000084B10B5196804460748FFF78FFF074A26
:1053800013680344136023682046DB6ABDE81040BD
:10539000184700BFCC3000201C000020D030002077
:1053A000F0B591B004460F46FFF7A2FD0026054672
:1053B00004F1300204F1400CB646A2F13003196842
:1053C0001869814202BF48001860C3F810E003F179
:1053D000100308BF06EB41069342F0D11A1D624547
:1053E000EBD12046FFF784FD284302D1304611B0AF
:1053F000F0BD04F11C0304F12C000821002253F835
:10540000045F2DB910AD05EB8205013245F8401C53
:10541000834201F10101F2D104F13C000C2153F867
:10542000045F2DB910AD05EB8205013245F8401C33
:10543000834201F10101F2D1002AD7DD013A0021B6
:105440003846FFF755FE10AB03EB8000072250F8FB
:10545000405C0021781CFFF74BFE002D2B46B8BFA7
:10546000EB1C9B1004EB03146B4203F0030305F0E9
:10547000030558BF5D420628044BD4BF002001201D
:1054800053F8203044F82530B0E700BF1400002066
:10549000084B10B5196804460748FFF781FF074A13
:1054A00013680344136023682046DB6ABDE810409C
:1054B000184700BFCC3000201C000020D030002056
:1054C000F0B591B004460F46FFF740FD00260546B3
:1054D000A4F13002A4F1200CB64602F13003196B9E
:1054E000186A814202BF48001863C3F820E0A3F1A4
:1054F000100308BF06EB41069342F0D11A1D624526
:10550000EBD12046FFF722FD284302D1304611B0EF
:10551000F0BD0021231F04F10C000A4653F8045F7C
:105520002DB910AD05EB8205013245F8401C8342D0
:1055300001F10101F2D104F11C00042153F8045FD0
:105540002DB910AD05EB8205013245F8401C8342B0
:1055500001F10101F2D1002AD8DD013A00213846DB
:10556000FFF7C6FD10AB03EB8000072250F8405C4C
:105570000021781CFFF7BCFD002D2B46B8BFEB1CAB
:105580009B1004EB03146B4203F0030305F00305C7
:1055900058BF5D420628044BD4BF0020012053F8B9
:1055A000203044F82530B1E714000020084B10B536
:1055B000196804460748FFF783FF074A1368034446
:1055C000136023682046DB6ABDE81040184700BF1F
:1055D000CC3000201C000020D03000202DE9F0410C
:1055E000054600201FF000FF2A4A2B4F00231360BE
:1055F0002A4A3860164619460133042BC2E90011C5
:10560000C2E9021102F11002F6D10F220021FFF7C8
:105610006FFD04463868DFF88880012200211044BD
:10562000FFF766FD002C2346B8BFE31C624202F080
:10563000030204F0030423F0030358BF544223443D
:1056400058F82020386846F8232000210F22023025
:10565000FFF74EFD04463868012200210330FFF7B2
:1056600047FD002C2346B8BFE31C624202F0030250
:1056700004F0030423F0030358BF5442234458F8B2
:10568000202046F823202B682846DB6ABDE8F0413D
:10569000184700BFD0300020CC3000201C00002074
:1056A0001400002008B500201FF09EFE014B18607A
:1056B00008BD00BFCC3000202DE9F0410546FDF7C4
:1056C0009EFE2A4A00231360294A194616460133D2
:1056D000042BC2E90011C2E9021102F11002F6D155
:1056E000244FDFF8948038680F220021FFF700FD77
:1056F00004463868012200211044FFF7F9FC002C11
:105700002346B8BFE31C624202F0030204F0030424
:1057100023F0030358BF5442234458F8202038682C
:1057200046F8232000210F220230FFF7E1FC044657
:105730003868012200210330FFF7DAFC002C2346F1
:10574000B8BFE31C624202F0030204F0030423F03A
:10575000030358BF5442234458F8202046F823201E
:105760002B682846DB6ABDE8F0411847D03000209E
:105770001C000020CC300020140000202DE9F04750
:10578000DFF85C81DFF85491DFF84CA10446002774
:105790003E46282202FB0685002128461FF0EBFD2D
:1057A00059F826308BB9484A142128460EF06CFF70
:1057B000731E0E2B14D8DFE803F021262B30353A68
:1057C0003F44494E53585D626700B3F5806F01DB7B
:1057D0003E4AE9E75246142128460EF055FFE7E716
:1057E000C4F8E45604F29C600CF01CFC01363B1D2E
:1057F0009E42CED1102E4CD03746C9E7C4F8C857C8
:1058000004F5F060F0E7C4F87C5704F23470EBE77D
:10581000C4F8305704F5DD60E6E7C4F8145804F224
:10582000CC70E1E7C4F8F85804F50B60DCE7C4F885
:10583000445904F6FC00D7E7C4F8905904F6481020
:10584000D2E7C4F8605804F61800CDE7C4F8DC5974
:1058500004F69410C8E7C4F8285A04F51E60C3E79C
:10586000C4F8745A04F62C20BEE7C4F8AC5804F609
:105870006400B9E7C4F8C05A04F67820B4E7C4F865
:105880000C5B04F6C420AFE7C4F8585B04F5316044
:10589000AAE70F4D0F4B104A1B68142128460EF043
:1058A000F3FE04F65C30C4F8A45B0CF0BBFB0B48C1
:1058B000FFF77CFB28B10BF003FABDE8F047FDF7DA
:1058C00033B9BDE8F08700BF9C730208607202081C
:1058D000D4300020D0300020657202081C00002067
:1058E000FC300020704704387047704710B5102115
:1058F00004461EF002F8204610BDA0F10400F5E7B2
:1059000000228260024A026018324260C160704721
:105910005C8002087047000010B5034B036004462A
:10592000FEF731FE204610BD8480020810B5044603
:10593000FFF7F2FF20464FF4E0711DF0DEFF204636
:1059400010BD000010B50446FEF754FE014B236065
:10595000204610BD8480020838B50446084DFEF785
:1059600013FE084B084A1B68284614210EF08CFED3
:10597000C4F80C5104F1C400BDE838400CF052BB2F
:10598000D4300020D030002065720208F02070472B
:105990004FF4A07070472920FCF7F0B92820FCF7DD
:1059A000EDB908B5FCF7BEF9CA20FCF7E7F9C3204A
:1059B000FCF7C8F90820FCF7C5F95020FCF7C2F93C
:1059C000CF20FCF7DBF90020FCF7BCF9C120FCF785
:1059D000B9F93020FCF7B6F9ED20FCF7CFF96420D7
:1059E000FCF7B0F90320FCF7ADF91220FCF7AAF997
:1059F0008120FCF7A7F9E820FCF7C0F98520FCF727
:105A0000A1F90020FCF79EF97820FCF79BF9CB2048
:105A1000FCF7B4F93920FCF795F92C20FCF792F942
:105A20000020FCF78FF93420FCF78CF90220FCF7FA
:105A300089F9F720FCF7A2F92020FCF783F9EA2086
:105A4000FCF79CF90020FCF77DF90020FCF77AF9BF
:105A5000B120FCF793F90020FCF774F91B20FCF748
:105A600071F9B620FCF78AF90A20FCF76BF9A2203D
:105A7000FCF768F9C020FCF781F91020FCF762F907
:105A8000C120FCF77BF91020FCF75CF9C520FCF77E
:105A900075F94520FCF756F91520FCF753F9C72096
:105AA000FCF76CF99020FCF74DF93620FCF766F90D
:105AB000C820FCF747F9F220FCF760F90020FCF75A
:105AC00041F9B020FCF75AF9C220FCF73BF9B620A7
:105AD000FCF754F90A20FCF735F9A720FCF732F956
