:020000040800F2
:100000000000032009B70008A75C0008A95C0008ED
:10001000AB5C0008AD5C0008AF5C000800000000AD
:1000200000000000000000000000000011AF000808
:10003000B15C000800000000A1AF0008C5A80008DE
:1000400059B7000859B7000859B7000859B7000850
:1000500059B7000859B7000859B7000859B7000840
:1000600059B7000859B7000859B7000859B7000830
:1000700059B7000859B7000859B7000859B7000820
:1000800059B7000859B7000859B7000859B7000810
:1000900059B7000859B7000859B7000859B7000800
:1000A00059B7000859B7000859B7000859B70008F0
:1000B00059B7000859B7000859B7000859B70008E0
:1000C00059B7000859B7000859B7000859B70008D0
:1000D00059B7000859B7000859B7000859B70008C0
:1000E00059B7000859B7000859B7000859B70008B0
:1000F00059B7000859B7000859B7000859B70008A0
:1001000059B7000859B7000859B7000859B700088F
:1001100059B7000859B70008B55C000859B700087E
:1001200059B7000859B7000859B7000859B700086F
:1001300059B7000859B7000859B7000859B700085F
:1001400059B7000859B7000859B7000859B700084F
:1001500059B7000859B7000859B7000859B700083F
:1001600059B7000859B7000859B7000859B700082F
:1001700059B7000859B7000859B700080000000037
:1001800059B7000859B7000859B7000859B700080F
:1001900059B7000859B7000859B7000859B70008FF
:0C01A000C15C000859B70008CD5C0008E5
:1001B00010B5054C237833B9044B13B10448AFF3A1
:1001C00000800123237010BD4005002000000000C6
:1001D000646B020808B5034B1BB103490348AFF336
:1001E000008008BD0000000044050020646B020888
:1001F00081F0004102E000BF83F0004330B54FEAD8
:1002000041044FEA430594EA050F08BF90EA020F44
:100210001FBF54EA000C55EA020C7FEA645C7FEAD7
:10022000655C00F0E2804FEA5454D4EB5555B8BFFA
:100230006D420CDD2C4480EA020281EA030382EA6B
:10024000000083EA010180EA020281EA0303362DFD
:1002500088BF30BD11F0004F4FEA01314FF4801CD0
:100260004CEA113102D0404261EB410113F0004FE2
:100270004FEA03334CEA133302D0524263EB430399
:1002800094EA050F00F0A780A4F10104D5F1200E37
:100290000DDB02FA0EFC22FA05F2801841F1000192
:1002A00003FA0EF2801843FA05F359410EE0A5F166
:1002B00020050EF1200E012A03FA0EFC28BF4CF097
:1002C000020C43FA05F3C01851EBE37101F000454D
:1002D00007D54FF0000EDCF1000C7EEB00006EEB5A
:1002E0000101B1F5801F1BD3B1F5001F0CD34908E4
:1002F0005FEA30004FEA3C0C04F101044FEA44523B
:1003000012F5800F80F09A80BCF1004F08BF5FEAC1
:10031000500C50F1000041EB045141EA050130BDA1
:100320005FEA4C0C404141EB010111F4801FA4F144
:100330000104E9D191F0000F04BF01460020B1FA99
:1003400081F308BF2033A3F10B03B3F120020CDAD1
:100350000C3208DD02F1140CC2F10C0201FA0CF0AF
:1003600021FA02F10CE002F11402D8BFC2F1200C14
:1003700001FA02F120FA0CFCDCBF41EA0C019040CA
:10038000E41AA2BF01EB0451294330BD6FEA040413
:100390001F3C1CDA0C340EDC04F11404C4F12002FE
:1003A00020FA04F001FA02F340EA030021FA04F310
:1003B00045EA030130BDC4F10C04C4F1200220FA67
:1003C00002F001FA04F340EA0300294630BD21FAA5
:1003D00004F0294630BD94F0000F83F4801306BF6B
:1003E00081F480110134013D4EE77FEA645C18BF5F
:1003F0007FEA655C29D094EA050F08BF90EA020FF6
:1004000005D054EA000C04BF1946104630BD91EAED
:10041000030F1EBF0021002030BD5FEA545C05D1F0
:100420004000494128BF41F0004130BD14F580042F
:100430003CBF01F5801130BD01F0004545F0FE41A3
:1004400041F470014FF0000030BD7FEA645C1ABFD8
:10045000194610467FEA655C1CBF0B46024650EA0F
:10046000013406BF52EA033591EA030F41F400213B
:1004700030BD00BF90F0000F04BF0021704730B5C1
:100480004FF4806404F132044FF000054FF0000196
:1004900050E700BF90F0000F04BF0021704730B557
:1004A0004FF4806404F1320410F0004548BF40422C
:1004B0004FF000013EE700BF42004FEAE2014FEA81
:1004C00031014FEA02701FBF12F07F4393F07F4F5C
:1004D00081F06051704732F07F4208BF704793F05F
:1004E0007F4F04BF41F40021704730B54FF4607472
:1004F00001F0004521F000411CE700BF50EA010275
:1005000008BF704730B54FF000050AE050EA01021D
:1005100008BF704730B511F0004502D5404261EB8D
:1005200041014FF4806404F132045FEA915C3FF4CE
:10053000D8AE4FF003025FEADC0C18BF03325FEA6B
:10054000DC0C18BF033202EBDC02C2F1200300FA1C
:1005500003FC20FA02F001FA03FE40EA0E0021FA41
:1005600002F11444BDE600BF70B54FF0FF0C4CF42F
:10057000E06C1CEA11541DBF1CEA135594EA0C0FE1
:1005800095EA0C0F00F0DEF82C4481EA030621EA1C
:100590004C5123EA4C5350EA013518BF52EA033557
:1005A00041F4801143F4801338D0A0FB02CE4FF009
:1005B0000005E1FB02E506F00042E0FB03E54FF039
:1005C0000006E1FB03569CF0000F18BF4EF0010E31
:1005D000A4F1FF04B6F5007F64F5407404D25FEA2D
:1005E0004E0E6D4146EB060642EAC62141EA5551E0
:1005F0004FEAC52040EA5E504FEACE2EB4F1FD0C22
:1006000088BFBCF5E06F1ED8BEF1004F08BF5FEA9F
:10061000500E50F1000041EB045170BD06F0004651
:1006200046EA010140EA020081EA0301B4EB5C04FE
:10063000C2BFD4EB0C0541EA045170BD41F48011F6
:100640004FF0000E013C00F3AB8014F1360FDEBF1B
:10065000002001F0004170BDC4F10004203C35DAF7
:100660000C341BDC04F11404C4F1200500FA05F37A
:1006700020FA04F001FA05F240EA020001F000421B
:1006800021F0004110EBD37021FA04F642EB060191
:100690005EEA430E08BF20EAD37070BDC4F10C04BB
:1006A000C4F1200500FA04F320FA05F001FA04F27F
:1006B00040EA020001F0004110EBD37041F100016B
:1006C0005EEA430E08BF20EAD37070BDC4F1200576
:1006D00000FA05F24EEA020E20FA04F301FA05F2DE
:1006E00043EA020321FA04F001F0004121FA04F286
:1006F00020EA020000EBD3705EEA430E08BF20EA56
:10070000D37070BD94F0000F0FD101F0004640008F
:1007100041EB010111F4801F08BF013CF7D041EA11
:10072000060195F0000F18BF704703F00046520015
:1007300043EB030313F4801F08BF013DF7D043EAE6
:100740000603704794EA0C0F0CEA135518BF95EA9C
:100750000C0F0CD050EA410618BF52EA4306D1D123
:1007600081EA030101F000414FF0000070BD50EA42
:10077000410606BF1046194652EA430619D094EACC
:100780000C0F02D150EA013613D195EA0C0F05D1B6
:1007900052EA03361CBF104619460AD181EA03010A
:1007A00001F0004141F0FE4141F470014FF00000C2
:1007B00070BD41F0FE4141F4780170BD70B54FF05D
:1007C000FF0C4CF4E06C1CEA11541DBF1CEA1355DD
:1007D00094EA0C0F95EA0C0F00F0A7F8A4EB0504BF
:1007E00081EA030E52EA03354FEA013100F08880B6
:1007F0004FEA03334FF0805545EA131343EA12637F
:100800004FEA022245EA111545EA10654FEA002633
:100810000EF000419D4208BF964244F1FD0404F5EC
:10082000407402D25B084FEA3202B61A65EB030548
:100830005B084FEA32024FF480104FF4002CB6EB05
:10084000020E75EB030E22BFB61A754640EA0C0085
:100850005B084FEA3202B6EB020E75EB030E22BFC5
:10086000B61A754640EA5C005B084FEA3202B6EB06
:10087000020E75EB030E22BFB61A754640EA9C00C5
:100880005B084FEA3202B6EB020E75EB030E22BF95
:10089000B61A754640EADC0055EA060E18D04FEA53
:1008A000051545EA16754FEA06164FEAC30343EAF3
:1008B00052734FEAC2025FEA1C1CC0D111F4801FC0
:1008C0000BD141EA00014FF000004FF0004CB6E7B9
:1008D00011F4801F04BF01430020B4F1FD0C88BF58
:1008E000BCF5E06F3FF6AFAEB5EB030C04BFB6EB63
:1008F000020C5FEA500C50F1000041EB045170BD56
:100900000EF0004E4EEA113114EB5C04C2BFD4EB82
:100910000C0541EA045170BD41F480114FF0000E06
:10092000013C90E645EA060E8DE60CEA135594EA82
:100930000C0F08BF95EA0C0F3FF43BAF94EA0C0F85
:100940000AD150EA01347FF434AF95EA0C0F7FF4FA
:1009500025AF104619462CE795EA0C0F06D152EA4E
:1009600003353FF4FDAE1046194622E750EA410632
:1009700018BF52EA43067FF4C5AE50EA41047FF443
:100980000DAF52EA43057FF4EBAE12E74FEA4102A6
:10099000B2F1E04324BFB3F5001CDCF1FE5C0DD9DD
:1009A00001F0004C4FEAC0024CEA5070B2F1004F27
:1009B00040EB830008BF20F00100704711F0804F2A
:1009C00021D113F13872BCBF01F00040704741F4EF
:1009D00080114FEA5252C2F11802C2F1200C10FAF3
:1009E0000CF320FA02F018BF40F001004FEAC123D7
:1009F0004FEAD32303FA0CFC40EA0C0023FA02F37B
:100A00004FEA4303CCE77FEA625307D150EA013350
:100A10001EBF4FF0FE4040F44000704701F0004020
:100A200040F0FE4040F40000704700BF7BB972B94F
:100A30000029BEBF00204FF0004106E008BF00289B
:100A40001CBF6FF000414FF0FF3000F0BDB9ADF1B9
:100A5000080C6DE904CE002909DB002B1ADB00F03D
:100A60004DF8DDF804E0DDE9022304B070474042B0
:100A700061EB4101002B1BDB00F040F8DDF804E0E6
:100A8000DDE9022304B0404261EB4101524263EBD5
:100A900043037047524263EB430300F02FF8DDF845
:100AA00004E0DDE9022304B0404261EB41017047FC
:100AB000524263EB430300F021F8DDF804E0DDE986
:100AC000022304B0524263EB4303704753B94AB95F
:100AD000002908BF00281CBF4FF0FF314FF0FF3046
:100AE00000F072B9ADF1080C6DE904CE00F006F823
:100AF000DDF804E0DDE9022304B070472DE9F0479A
:100B0000089E04468846002B4BD18A42154667D979
:100B1000B2FA82F24AB1C2F1200701FA02F320FAD6
:100B200007F7954047EA030894404FEA154E230C17
:100B3000B8FBFEF71FFA85FC0EFB178843EA084353
:100B400007FB0CF1994209D9EB1807F1FF3080F04F
:100B50001B81994240F21881023F2B445B1AA4B2D8
:100B6000B3FBFEF00EFB103344EA034400FB0CFC25
:100B7000A44509D92C1900F1FF3380F00781A44561
:100B800040F2048102382C4440EA0740A4EB0C04F4
:100B900000271EB1D4400023C6E900433946BDE812
:100BA000F0878B4209D9002E00F0EB800027C6E9C0
:100BB000000138463946BDE8F087B3FA83F7002FC5
:100BC00047D18B4202D3824200F2FA80841A61EB51
:100BD000030301209846002EE0D0C6E90048DDE777
:100BE00002B9FFDEB2FA82F2002A40F08F80491B80
:100BF0004FEA154E1FFA85F80127B1FBFEFC230CC6
:100C00000EFB1C1143EA014308FB0CF1994207D982
:100C1000EB180CF1FF3002D2994200F2CD808446ED
:100C2000591AA3B2B1FBFEF00EFB101443EA0444C0
:100C300008FB00F8A04507D92C1900F1FF3302D2B8
:100C4000A04500F2B6801846A4EB080440EA0C4028
:100C50009FE7C7F1200CBB4022FA0CFE4EEA030EC0
:100C600001FA07F420FA0CF521FA0CF34FEA1E48BA
:100C70002543B3FBF8F92C0C08FB19331FFA8EFA45
:100C800044EA034309FB0AF49C4202FA07F200FA21
:100C900007F10BD91EEB030309F1FF3080F08780C9
:100CA0009C4240F28480A9F1020973441B1BADB23F
:100CB000B3FBF8F008FB103345EA034400FB0AFAE3
:100CC000A24508D91EEB040400F1FF336BD2A24504
:100CD00069D90238744440EA0940A0FB0289A4EBB8
:100CE0000A044C45C2464B4654D351D0002E69D01D
:100CF000B1EB0A0564EB030404FA0CFCFD40FC4074
:100D00004CEA0505C6E90054002747E7C2F1200375
:100D100020FA03F7954001FA02F021FA03F34FEAB3
:100D2000154E3843010CB3FBFEF71FFA85F80EFB96
:100D3000173341EA034107FB08F38B4204FA02F43C
:100D400007D9691807F1FF3C2FD28B422DD9023FFA
:100D50002944CB1A81B2B3FBFEF00EFB103341EAFB
:100D6000034100FB08F38B4207D9691800F1FF3CEF
:100D700017D28B4215D902382944C91A40EA0747CD
:100D80003BE73746304609E70746E7E61846FBE605
:100D90004145ABD2B8EB020A69EB0E0201381346AB
:100DA000A4E76046E9E7184695E76746D1E781463C
:100DB0007CE702382C4447E7ACF1020C2B442FE7C8
:100DC000384608E73746E9E6704700BF00000000F4
:100DD00001F0FF01102A2BDB10F0070F08D010F8EC
:100DE000013B013A8B422DD010F0070F42B3F6D1F0
:100DF000F0B441EA012141EA014122F007047FF009
:100E000000070023F0E80256083C85EA010586EA5F
:100E1000010685FA47F5A3FA87F586FA47F6A5FA9B
:100E200087F68EB9EED1F0BC01F0FF0102F00702A7
:100E300032B110F8013B013A83EA010313B1F8D152
:100E40000020704701387047002D06BF3546033833
:100E5000073815F0010F07D1013015F4807F02BF6C
:100E6000013015F4C03F0130F0BC0138704700BFBD
:100E7000034613F8012B002AFBD1181A01387047DA
:100E80007047704710B51B4B1B4C1968A1F16502E8
:100E9000302A06D8194B1B68653B302B9CBF0023BA
:100EA00023602368012B0CD0144B96291B6809DDA5
:100EB000A3F1650130290ED803685B6B98470123C5
:100EC000236010BD632906DCA3F16501302902D837
:100ED0000368DB6BF2E7962B04DD302AF1D8036858
:100EE0009B6BEBE7632BECDC302AEAD803681B6BC7
:100EF000E4E700BFBC4A012044000020444C01202C
:100F000010B5034B0360044600F0CFFE204610BD31
:100F1000D46B020810B50446FFF7F2FF204640F6F6
:100F2000985123F08DFA204610BDF0B5031F00F153
:100F30003C01002085B0064603F110071C46002244
:100F400054F8045F35B10DF1100C0CEB820C01323A
:100F50004CF8105CA742F3D1032A03DC4DF8226061
:100F60000132F9E700225DF8225053F8047F1D603A
:100F70000132AF4218BF0120042AF4D1A142234616
:100F8000DAD105B0F0BDF0B5011F00F13C0400203E
:100F900085B0074601F110052A46032352F804697B
:100FA00036B10DF1100C0CEB830C013B4CF8106CBE
:100FB0009142F3D1002B03DB4DF82370013BF9E79D
:100FC00000235DF8231052F8046F116001338E4244
:100FD00018BF0120042BF4D1AC422946DAD105B068
:100FE000F0BDF0B5034600F11005002085B00646BF
:100FF00000210A460C011C592CB104AF07EB8207F3
:10100000013247F8104C01310429F3D1032A03DCE3
:101010004DF822600132F9E7002211015DF822400B
:101020005F585C500132A74218BF0120042AF4D156
:101030000433AB42DCD105B0F0BDF0B5034600F19E
:101040001005002085B0064603210A460C011C59F4
:101050002CB104AF07EB8207013A47F8104C11F1AD
:10106000FF31F3D2002A03DB4DF82260013AF9E7A1
:10107000002211015DF822405F585C500132A74206
:1010800018BF0120042AF4D10433AB42DCD105B0EF
:10109000F0BD30B500F10C0200F14C04A2F11001DA
:1010A00051F8043F23B39142FAD101F11002A24258
:1010B000F4D110300021A0F110020023032B03D043
:1010C000D2E90054A54212D0032904D0156850F883
:1010D0002340A5420BD00133042B02F10402EDD1D1
:1010E0000131042900F11000E5D1012300E00023C3
:1010F000184630BD10B5044600F03EFF014B23609A
:10110000204610BDD46B020830B5D0F8C039B3F515
:101110001C7F48D32E4D00F5637402461368516856
:1011200003F0004321F000410B43D2F8341681EA6A
:10113000530113F0010318BF2B464B4042F8043B08
:101140009442EBD1224D021F00F22C64D2F890336E
:10115000D2F8941303F0004321F000410B4352F8FE
:10116000041F81EA530113F0010318BF2B464B40C3
:101170009442C2F88C33E9D1D0F8BC3902681449E2
:1011800022F0004203F000431343D0F8302682EAF5
:10119000530213F0010318BF0B465340C0F8BC398B
:1011A0000023C0F8C039D0F8C0395A1CC0F8C02993
:1011B00050F82330074883EAD32300EAC3104340A2
:1011C000054800EAC330584080EA904030BD00BF77
:1011D000DFB0089980562C9D0000C6EFF0B5284876
:1011E0000378BFF35B8F13F00106ADF6E41D0D46E7
:1011F00014462BD123F0FCF840B3224A03A8D11F98
:10120000019023F039F907230293019B01A9DE71B4
:1012100007A823F063F907A823F082F91A4B1B4EA5
:101220001860012118461A6882EA927206FB0212BF
:101230000131B1F51C7F43F8042FF4D1C0F8C01977
:101240000F4823F0E1F801A823F005F9621B531CB5
:1012500012D001320C4F4FF0FF30B0FBF2F606FB1C
:1012600002F43846FFF750FF8442FAD9B0FBF6F09B
:1012700028440DF6E41DF0BD0348FFF745FFF7E7EE
:101280005C050020C36B0208600500206589076CBF
:101290002DE9F04190B005460F46FFF746FE0026C7
:1012A0000446A84605F10C0005F14C0CB646A0F129
:1012B0000C03D3E900218A4203D15200C3E9002E76
:1012C000164404338342F4D103F110008445EED177
:1012D0002846FFF72AFE002C43D100283DD00323E7
:1012E000D8F8082032B910AA02EB8402591E42F83D
:1012F000401C0134D8F80C202AB910AA02EB840251
:10130000013442F8403C0433132B08F11008E7D1B4
:101310001CB3621E00213846FFF760FF10AB03EBE1
:101320008000072250F8404C0021781CFFF756FF40
:101330000628D4BF002001200B4B53F820200423A3
:1013400094FBF3F305EB0315634203F0030304F08E
:10135000030458BF5C4245F82420304610B0BDE875
:10136000F08103230024BBE74800002010B5084BA0
:10137000044619680748FFF78BFF074A13681844AB
:10138000106023682046DB6ABDE81040184700BFA4
:10139000D011002004000020A4110020F0B591B06D
:1013A00005460F46FFF7EFFD00260446294605F1E6
:1013B0004000B44601F10C031A6853F804ED72457D
:1013C00003D15200C3E900C216448B42F4D103F1A9
:1013D00010018142EED12846FFF7D5FD002C41D007
:1013E0000123002405EB830252F8042C32B910AA21
:1013F00002EB8402591E42F8401C013455F82320A8
:101400002AB910AA02EB8402013442F8403C0433AA
:10141000112BE7D11CB3621E00213846FFF7DEFE18
:1014200010AB03EB8000072250F8404C0021781CE1
:10143000FFF7D4FE0628D4BF002001200B4B53F841
:101440002020042394FBF3F305EB0315634203F020
:10145000030304F0030458BF5C4245F824203046DF
:1014600011B0F0BD0028FAD00123BBE748000020EE
:1014700010B5084B044619680748FFF78FFF074A65
:1014800013681844106023682046DB6ABDE81040EA
:10149000184700BFD011002004000020A411002034
:1014A0002DE9F04190B005460F46FFF79AFD002662
:1014B0000446294605F1100EB0460B464FF0000CCD
:1014C0001A681869824208BF52000CF1010C02BF71
:1014D0001A60C3F81080B618BCF1030F03F11003B3
:1014E000EED104318E45E8D12846FFF77AFDB4BB32
:1014F00088B3082355F82320A2B301330C2BF9D16C
:1015000055F82320AAB30133102BF9D11CB3621E66
:1015100000213846FFF762FE10AB03EB8000072284
:1015200050F8404C0021781CFFF758FE0628D4BF25
:1015300000200120124B53F82020042394FBF3F3E6
:1015400005EB0315634203F0030304F0030458BFE3
:101550005C4245F82420304610B0BDE8F0810823F5
:101560000024C7E710AA02EB8402013442F8403C91
:10157000C3E710AA02EB8402013442F8403CC2E700
:101580004800002010B5084B044619680748FFF7CB
:1015900087FF074A13681844106023682046DB6AF7
:1015A000BDE81040184700BFD01100200400002003
:1015B000A41100202DE9F04190B005460F46FFF739
:1015C0003CFD0026044605F1100C2846B6460346AD
:1015D0004FF003081A6B196A8A4201BF52001A635E
:1015E000C3F820E0B618B8F10108A3F11003F1D157
:1015F00004308445EBD12846FFF71FFDB4BB88B308
:10160000234655F823209AB30133042BF9D155F81A
:101610002320A2B30133082BF9D11CB3621E002191
:101620003846FFF7DBFD10AB03EB8000072250F8D4
:10163000404C0021781CFFF7D1FD0628D4BF0020C4
:101640000120124B53F82020042394FBF3F305EB05
:101650000315634203F0030304F0030458BF5C4224
:1016600045F82420304610B0BDE8F0814446C7E775
:1016700010AA02EB8402013442F8403CC4E710AAED
:1016800002EB8402013442F8403CC3E748000020EA
:1016900010B5084B044619680748FFF78BFF074A47
:1016A00013681844106023682046DB6ABDE81040C8
:1016B000184700BFD011002004000020A411002012
:1016C0002DE9F0470746002024F0FAFE294B2A496D
:1016D00000221A60294B086003F1400488461E4628
:1016E000C3E90022C3E902221033A342F8D10F223A
:1016F0000021FFF773FD0546D8F80000DFF880A051
:10170000012200211044FFF769FD6B4203F003033F
:101710004FF0040995FBF9F205F0030558BF5D424F
:101720005AF82030D8F8000005EB820500210F227E
:10173000023046F82530FFF751FD0446D8F8000086
:10174000012200210330FFF749FD94FBF9F96342C0
:1017500003F0030304F0030458BF5C4204EB890464
:101760005AF8203046F824303B683846DB6ABDE83A
:10177000F0471847A4110020D011002004000020D9
:101780004800002008B5002024F09AFE014B1860A4
:1017900008BD00BFD01100202DE9F047074600F03A
:1017A00085FA2A4B00221A60294B03F140011E469C
:1017B000C3E90022C3E9022210338B42F8D1DFF8DB
:1017C00094A0DFF89490DAF800000F220021FFF7D0
:1017D00005FD0546DAF80000012200211044FFF75C
:1017E000FDFC6B4203F003034FF0040895FBF8F295
:1017F00005F0030558BF5D4259F82030DAF80000C3
:1018000005EB820500210F22023046F82530FFF754
:10181000E5FC0446DAF80000012200210330FFF75E
:10182000DDFC94FBF8F8634203F0030304F00304C7
:1018300058BF5C4204EB880459F8203046F8243045
:101840003B683846DB6ABDE8F0471847A411002022
:1018500004000020D0110020480000202DE9F84F9E
:10186000DFF86081044600274FF02809504BDFF86D
:1018700058B1002609FB073A09FB06A528220021DA
:10188000284624F05CF958F8263093B9494A1421C7
:10189000284613F083FCBB19013B0E2B14D8DFE85C
:1018A00003F03A3F44494E53585D62676C71767B52
:1018B0008000B3F5806F01DB5A46E8E73E4A142109
:1018C000284613F06BFCE6E7C4F8E45604F29C608B
:1018D000013611F039F9042ECED10437102F08F15A
:1018E0001008C3D1354D364B334A1B6814212846A6
:1018F00013F054FC04F65C30C4F8A45B11F024F936
:101900003048FFF7C6FB002850D00FF06BFFBDE852
:10191000F84F01F037BFC4F8C85704F5F060D7E7B7
:10192000C4F87C5704F23470D2E7C4F8305704F599
:10193000DD60CDE7C4F8145804F2CC70C8E7C4F8F1
:10194000F85804F50B60C3E7C4F8445904F6FC00EA
:10195000BEE7C4F8905904F64810B9E7C4F86058D7
:1019600004F61800B4E7C4F8DC5904F69410AFE7A5
:10197000C4F8285A04F51E60AAE7C4F8745A04F69D
:101980002C20A5E7C4F8AC5804F66400A0E7C4F81E
:10199000C05A04F678209BE7C4F80C5B04F6C42018
:1019A00096E7C4F8585B04F5316091E7BDE8F88F1D
:1019B000240F0020D0950208C96B0208A81100204E
:1019C000A411002004000020C46B020870470438F2
:1019D0007047704710B51021044622F031FD2046B3
:1019E00010BDA0F10400F5E710B500228260044AA2
:1019F000C16002F1080420320460426010BD00BFE3
:101A0000186C0208704704387047704710B51021F1
:101A1000044622F015FD204610BDA0F10400F5E7B4
:101A200010B500228260044AC16002F1080420322D
:101A30000460426010BD00BF406C020870477047F0
:101A40007047000010B5034B0360044601F092FAA2
:101A5000204610BD706C020810B50446FFF7F2FF77
:101A600020464FF4907122F0EBFC204610BD0000A0
:101A700010B5044601F0C4FA014B2360204610BDA6
:101A8000706C020801F077BA00220260704770475C
:101A90007047000010B5034B0360044601F088FB5B
:101AA000204610BDA46C020810B50446FFF7F2FFF3
:101AB00020464FF4E07122F0C3FC204610BD000028
:101AC00010B5044601F0AEFB014B2360204610BD6B
:101AD000A46C020838B50446084D01F06AFB084BB7
:101AE000084A1B682846142113F058FBC4F80C510F
:101AF00004F1C400BDE8384011F026B8A811002058
:101B0000A4110020C96B0208704704387047704761
:101B100010B51021044622F093FC204610BDA0F120
:101B20000400F5E710B500228260044AC16002F1AA
:101B3000080420320460426010BD00BFD06C02086F
:101B4000704700F598730868496803C37047704789
:101B500001F0D8BD10B54FF4AE71044622F070FC10
:101B6000204610BD10B50446D0F85801FFF78FFF8E
:101B70002046BDE810400FF0B7BE10B50446D0F8BF
:101B8000400158B10368DB68984738B1D4F8400188
:101B900003689B6898470023C4F8403110BD0000DB
:101BA00010B5044601F072FD014B2360204610BDC4
:101BB000006D020890F8252012B103685B69184790
:101BC00070470020704781807047C1807047018155
:101BD0007047418170477047704770477047704742
:101BE000C38810B4D21A83885DF8044BC91A0368FD
:101BF00012B25B6D09B218474FF6FF7383814FF045
:101C0000FF3303621368C3611060704790F82520AA
:101C10001AB190F8242002B118607047806A7047AA
:101C200070477047704730B585B0036801816D46D5
:101C300001460446D3F884302846984795E80700C3
:101C40003C3484E8070005B030BD30B585B003688A
:101C500041816D4601460446D3F8843028469847B2
:101C600095E807003C3484E8070005B030BD002249
:101C7000028042808280C280704780F836107047B0
:101C800070B5036804461B6B1546984723682946C0
:101C900020465B6EBDE8704018470020704708B5CD
:101CA000FFF788FF08BD806C70477047704790F859
:101CB0002C302BB1C26EC26523B1436F03667047EF
:101CC000826EF8E7036FF9E770477047704730B4EA
:101CD000C56844686A100346ED0704EB02009B6880
:101CE00048BFA25830BC48BFD358184743682BB1EF
:101CF00083682BB9C06800F0010070471846704730
:101D00000120704790F82D3080F85A30704710B598
:101D10000821044622F094FB204610BD10B578211E
:101D2000044622F08DFB204610BD10B54C21044620
:101D300022F086FB204610BD10B51021044622F08B
:101D40007FFB204610BD10B540F69851044622F0A6
:101D500077FB204610BD000070B503685E6B124B28
:101D60001B6804468DB22BB9104B114A6C211148E7
:101D700023F064FC1049828D0988914203D80F4BEF
:101D80000B4A6D21F3E713F812200D4B1B6853F833
:101D9000220003681B6B9847291A3346204609B274
:101DA000BDE87040184700BF6C3F0120A36E0208D9
:101DB000986F0208E56E0208703F0120266F020846
:101DC000743F012010B50446006B50B10368DB6816
:101DD000984730B1206B036821469B68BDE81040EE
:101DE000184710BD70B50B7990F82C5004460E467C
:101DF00053B955B13379012B17D123682046D3F855
:101E00008830BDE8704018477DB1B3FA83F35B09B1
:101E100084F82C3023682046D3F88C309847236808
:101E200020465B699847002DE4D170BD00F6A830CC
:101E3000884208B505D10FF0D5FCBDE8084001F097
:101E400091BC08BD08B529B90FF0CCFCBDE808402D
:101E500001F098BC08BD00000A4A0260002282809E
:101E6000C280028142818281C28102824282C0E9B3
:101E70000522C2610284428480F82420012280F875
:101E800025207047B08C020870B5036804461B6BB0
:101E9000154698472368294620465B6BBDE870408D
:101EA000184770B504461E46BDF91050FFF7ECFF09
:101EB0002368314620469A6B90472368294620467E
:101EC000DB6BBDE87040184710B50446FFF7C4FF50
:101ED000024B23600023A362204610BD2088020825
:101EE00010B526220446002123F029FE2046FFF7E4
:101EF000B3FF044B2360FF2384F826300023A36242
:101F0000204610BD108B020800224FF6FF710280A0
:101F100042808180C1808260704710B50446FFF71F
:101F2000F3FF204610BD000038B5262204460021EC
:101F300023F005FE2046FFF78FFF0C4B23600C4B70
:101F4000A3624FF6FF730025A3854FF47F03C4E916
:101F50000C5384F8385084F8395004F13C00FFF7F2
:101F6000D3FF044B2360A564204638BD808A020855
:101F7000546D0208646D02082DE9F04F0446EDB07F
:101F80002746002611F02AFCDD4BE66347F8403B6C
:101F900004F16C09384604F19805FFF7A1FF4846A3
:101FA000FFF79EFF4FF6FF78262231462846ADF810
:101FB000A48123F0C4FD2846FFF74EFFD14BC4F89F
:101FC00098306CAB1A46284632F80C3DA4F8BE3067
:101FD000114684F8C08004F1C40802920DF006F89E
:101FE0004046FFF771FF04F1F00318461593FFF721
:101FF00077FF04F58E7318461693FFF765FF04F517
:10200000A47318461793FFF76BFF04F5BA731846CD
:102010001893FFF759FF04F5D07318461993FFF78B
:102020005FFF04F5E67318461A93FFF74DFF04F5BA
:10203000FC7318461B93FFF753FF04F5097318460A
:102040001C93FFF741FF04F5147318461D93FFF727
:1020500047FF04F51F7318461E93FFF735FF04F57D
:102060002A7318461F93FFF73BFF04F53573184694
:102070002093FFF729FF04F5407318462193FFF7DB
:102080002FFF04F54B7318462293FFF71DFF04F54D
:10209000567318462393FFF723FF04F56173184620
:1020A0002493FFF711FF04F56C7318462593FFF78F
:1020B00017FF04F5777318462693FFF705FF04F51D
:1020C000816318462793FFF70BFF04F23443184649
:1020D0002893FFF7F9FE04F58C6318462993FFF760
:1020E000FFFE04F28C4318462A93FFF7EDFE04F539
:1020F000976318462B93FFF7F3FE04F2E443184668
:102100002C93FFF7E1FE04F5A26318462D93FFF729
:10211000E7FE04F23C5318462E93FFF7D5FE04F574
:10212000AD6318462F93FFF7DBFE04F29453184675
:102130003093FFF7C9FE04F5B86318463193FFF7F3
:10214000CFFE04F2EC5318463293FFF7BDFE04F5C0
:10215000C36318463393FFF7C3FE04F24463184683
:102160003493FFF7B1FE04F5CE63184604F29C6A7F
:102170003593FFF7B5FE5046FFF7D6FE04F5DD6355
:1021800018460493FFF7D0FE04F234731846059303
:10219000FFF7CAFE04F5F06318460693FFF7C4FE86
:1021A00004F2CC7318460793FFF7BEFE04F618033B
:1021B00018460893FFF7B8FE04F66403184609931F
:1021C000FFF7B2FE04F50B6318460A93FFF7ACFE67
:1021D00004F6FC0318460B93FFF7A6FE04F648131B
:1021E00018460C93FFF7A0FE04F6941318460D93BF
:1021F000FFF79AFE04F51E6318460E93FFF794FE50
:1022000004F62C2318460F93FFF78EFE04F678236E
:1022100018461093FFF788FE04F6C423184611935E
:10222000FFF782FE04F5316318461293FFF77CFE38
:1022300004F65C3318461393FFF776FE04F6A833D2
:1022400018460393FFF740FEFF2384F8D53B012394
:1022500084F8CC3B2C4BC4F8A83B04F6DC3318467E
:1022600084F8D46BC4F8D86B1493FFF739FE274B6E
:10227000C4F8DC3B324631461498C4F8086CA4F824
:102280000C6CC4F8106CC4F8146CC4F8186CC4F866
:102290001C6CFFF7F9FD1499039809F095FA1C4B93
:1022A000C4F8883D1B4BC4F8903D4FF4A0733246F0
:1022B000384600933146F023C4F88C4DC4F8946D31
:1022C00004F1040BFFF7EDFD4FF07F433946A366A1
:1022D000584609F079FA4FF4A0733246009331461C
:1022E000F0234846FFF7DDFD6FF44973C4F89430DE
:1022F0004946584609F068FA324628460CE000BFC5
:102300006C6F0208E08B0208F46D0208788B0208FB
:10231000906E02082D1E00083146FFF7B5FD2846D5
:102320000299ADF8A4610CF061FE2946584609F007
:102330004BFAE1230093442240460621F027FFF7A1
:10234000B0FD4146584609F03FFA3B4650220097FF
:102350006FF001011598DFF83C83FFF7A2FDCC4B2D
:10236000C4F818313225159984F81661584609F0D9
:102370002BFA2B4682220D2116980095FFF791FD2E
:102380001699584609F020FA2B46902206211798F4
:102390000095FFF786FDC4F870811799584609F03B
:1023A00013FA2B46B9220D2118980095FFF779FDF5
:1023B0001899584609F008FA2B46CB22062119989D
:1023C0000095FFF76EFDC4F8C8811999584609F0C9
:1023D000FBF92B46B92244211A980095FFF761FDBD
:1023E0001A99584609F0F0F92B46CB2241211B9847
:1023F0000095FFF756FDC4F820821B99584609F056
:10240000E3F93A462B460D211C980095FFF749FD4C
:102410001C99584609F0D8F92B464FF483720621CF
:102420001D980095FFF73DFDC4F878821D99584628
:1024300009F0CAF92B464B2244211E980095FFF75C
:1024400030FD1E99584609F0BFF92B46552241210F
:102450001F980095FFF725FDC4F8D0821F995846B4
:1024600009F0B2F92B464B220D2120980095FFF779
:1024700018FD2099584609F0A7F92B465522062148
:1024800021980095FFF70DFDC4F82883219958463F
:1024900009F09AF92B464B227B2122980095FFF7F1
:1024A00000FD2299584609F08FF92B4655227C21D0
:1024B00023980095FFF7F5FCC4F8808323995846CC
:1024C00009F082F92B464B22B22124980095FFF7A0
:1024D000E8FC2499584609F077F92B465522B72194
:1024E00025980095FFF7DDFCC4F8D8832599584658
:1024F00009F06AF92B46B9227B2126980095FFF74F
:10250000D0FC2699584609F05FF92B46CB227C2156
:1025100027980095FFF7C5FCC4F8308427995846E2
:1025200009F052F93A462B467B2128980095FFF78F
:10253000B8FC2899584609F047F92B464FF48372A6
:102540007C2129980095FFF7ACFCC4F88884299970
:10255000584609F039F93A462B46B2212A98009597
:10256000FFF79FFC2A99584609F02EF92B464FF4A5
:102570008372B6212B980095FFF793FCC4F8E08492
:102580002B99584609F020F93A462B4644212C98BD
:102590000095FFF786FC2C99584609F015F92B4653
:1025A0004FF4837241212D980095FFF77AFCC4F80F
:1025B00038852D99584609F007F92B468222B22119
:1025C0002E980095FFF76DFC2E99584609F0FCF8FF
:1025D0002B469022B6212F980095FFF762FCC4F895
:1025E00090852F99584609F0EFF82B468222442116
:1025F00030980095FFF755FC3099584609F0E4F8FB
:102600002B469022412131980095FFF74AFCC4F8EF
:10261000E8853199584609F0D7F82B46B922B221FE
:1026200032980095FFF73DFC3299584609F0CCF8F6
:102630002B46CB22B62133980095FFF732FCC4F825
:1026400040863399584609F0BFF82B4682227B21F9
:1026500034980095FFF725FC3499584609F0B4F8F2
:102660002B4690227C2135980095FFF71AFCC4F880
:1026700098863599584609F0A7F8552206212B4629
:1026800050460095FFF70DFC39AF4FF0FF3303E0E4
:102690000B3557FFABBCD1FFC4F8CC363846A4F895
:1026A000D066FFF731FC97E807000C4F04F5DB63B9
:1026B00083E807003B6804F542682BB9084B094AD8
:1026C0006021094822F0BAFFDFF82490B9F8003001
:1026D000222B0FD8054B034A6121F2E76C3F012002
:1026E000A36E0208D36F0208E56E0208266F020887
:1026F000703F0120D74B2221186801F087FED64A8F
:1027000003460A21404612F049FD23235046C4F8EF
:10271000E4860299DFF84C83ADF8A831CDF8A481A6
:102720000CF008FB5146584609F04EF82B46B721ED
:10273000552204980095FFF7B4FB0DF1F00A4FF015
:10274000FF32C4F818275046A4F81C67FFF7DCFBDB
:102750009AE8070004F2247383E807003B6804F654
:10276000344A002BAAD0B9F800301C2BB2D9B94B8F
:102770001C21186801F04AFEB74A03460A21504658
:1027800012F00CFD1D23C4F830A702990498ADF88F
:10279000A831CDF8A4810CF0CDFA0499584609F07F
:1027A00013F82B467C21552205980095FFF779FBFD
:1027B0000DF1FC0A4FF0FF32C4F864275046A4F82C
:1027C0006867FFF7A1FB9AE8070004F5EE6383E86A
:1027D00007003B6804F6484A002B3FF46FAFB9F896
:1027E00000301E2B7FF676AF9A4B1E21186801F041
:1027F0000DFE994A03460A21504612F0CFFC1F23D2
:10280000C4F87CA702990598ADF8A831CDF8A48149
:102810000CF090FA0599584608F0D6FF2B46412156
:10282000552206980095FFF73CFB0DF5847A4FF092
:10283000FF32C4F8B0275046A4F8B467FFF764FB32
:102840009AE8070004F2BC7383E807003B6804F6CB
:102850005C4A002B3FF432AFB9F80030202B7FF6F2
:1028600039AF7C4B2021186801F0D0FD7A4A03462D
:102870000A21504612F092FC212302990698C4F8CE
:10288000C8A7ADF8A831CDF8A4810CF053FA069989
:10289000584608F099FF2B4690220621009507988C
:1028A000FFF7FFFA45AD4FF0FF33C4F8FC37284679
:1028B000A4F80068FFF728FB95E8070004F6080372
:1028C00083E807003B6804F54765002B3FF4F6AE4C
:1028D000B9F800301A2B7FF6FDAEDFF878915F4F24
:1028E000D9F800001A2101F091FD5B4A03460A2144
:1028F000284612F053FC1B23C4F8145869A9079802
:10290000ADF8A831CDF8A48132250CF013FA07995F
:10291000584608F059FF2B460621CB22089800950F
:10292000FFF7BFFA48AE4FF0FF324FF00008C4F88F
:102930004828A4F84C883046FFF7E6FA96E80700E6
:1029400004F6540383E807003B6804F6844A002B2E
:102950003FF4B4AE424E3388182B7FF6BBAE18213D
:10296000D9F8000001F052FD3B4A03460A215046C7
:1029700012F014FC3B4BC4F860A8699369A91923B1
:102980000898ADF8A8310CF0D5F90899584608F028
:102990001BFF2B46062140F2091209980095FFF70C
:1029A00080FA0DF5967A4FF0FF32C4F8942850461D
:1029B000A4F89888FFF7A8FA9AE8070004F50A63D4
:1029C00083E807003B6804F6984A002B3FF476AE94
:1029D0003388162B7FF67EAE1621D9F8000001F061
:1029E00015FD1D4A03460A21504612F0D7FB1D4B28
:1029F000C4F8ACA8699369A917230998ADF8A83160
:102A00000CF098F90999584608F0DEFE2B46412152
:102A100090220A980095FFF744FA0DF59C7A4FF042
:102A2000FF32C4F8E0285046A4F8E488FFF76CFAB7
:102A30009AE8070004F6EC0383E807003B6804F615
:102A4000AC4A002B3FF43AAE3388142B7FF642AEEB
:102A50000AE000BF783F0120A06E02086C3F012011
:102A6000703F0120546D02081421D9F8000001F0D4
:102A7000CDFCD54A03460A21504612F08FFBD34BBA
:102A8000C4F8F8A8699369A915230A98ADF8A83184
:102A90000CF050F90A99584608F096FE2B467C2116
:102AA00090220B980095FFF7FCF90DF5A27A4FF0F4
:102AB000FF32C4F82C295046A4F83089FFF724FAD5
:102AC0009AE8070004F6381383E807003B6804F52A
:102AD0004C6A002B3FF4F2AD3388122B7FF6FAAD2F
:102AE0001221D9F8000001F091FCB74A03460A21EF
:102AF000504612F053FBB54B699369A913230B9809
:102B0000C4F844A9ADF8A8310CF014F90B99584653
:102B100008F05AFE2B46B921009590220C98FFF739
:102B2000C0F954AD4FF0FF32C4F878292846A4F814
:102B30007C89FFF7E9F995E8070004F6841383E838
:102B400007003B6804F6D445002B3FF4B7AD33884B
:102B5000102B7FF6BFAD1021D9F8000001F056FC14
:102B6000994A03460A21284612F018FB974BC4F8ED
:102B70009059699369A911230C98ADF8A8313225B1
:102B80000CF0D8F80C99584608F01EFE2B4641214F
:102B9000CB220D980095FFF784F957AE4FF0FF3226
:102BA000C4F8C429A4F8C8893046FFF7ADF996E8FF
:102BB000070004F51D6383E807003B6804F6E84A54
:102BC000002B3FF47BAD824E33880E2B7FF682AD17
:102BD0000E21D9F8000001F019FC7B4A03460A21B6
:102BE000504612F0DBFA794BC4F8DCA9699369A965
:102BF0000F230D98ADF8A8310CF09CF80D995846AC
:102C000008F0E2FD2B467C21CB220E980095FFF7C1
:102C100048F90DF5B47A4FF0FF32C4F8102A504647
:102C2000A4F8148AFFF770F99AE8070004F61C2349
:102C300083E807003B6804F6FC4A002B3FF43EADF6
:102C400033880C2B7FF646AD0C21D9F8000001F03B
:102C5000DDFB5D4A03460A21504612F09FFA5B4BAA
:102C6000C4F828AA699369A90D230E98ADF8A83174
:102C70000CF060F80E99584608F0A6FD2B46B621D8
:102C8000CB220F980095FFF70CF90DF5BA7A4FF0AB
:102C9000FF32C4F85C2A5046A4F8608AFFF734F982
:102CA0009AE8070004F6682383E807003B6804F508
:102CB000516A002B3FF402AD33880A2B7FF60AAD30
:102CC0000A21D9F8000001F0A1FB3F4A03460A217E
:102CD000504612F063FA3D4BC4F874AA699369A98F
:102CE0000B230F98ADF8A8310CF024F80F99584633
:102CF00008F06AFD2B4641214FF48372109800952D
:102D0000FFF7CFF80DF5C07A4FF0FF32C4F8A82ACC
:102D10005046A4F8AC8AFFF7F7F89AE8070004F6E3
:102D2000B42383E807003B6804F6245A002B3FF4E1
:102D3000C5AC3388082B7FF6CDAC0821D9F800004C
:102D400001F064FB204A03460A21504612F026FA9D
:102D50001E4B699369A909231098C4F8C0AAADF85D
:102D6000A8310BF0E7FF1099584608F02DFD2B46CF
:102D70004FF483727C2100951198FFF792F863ADB0
:102D80004FF0FF33C4F8F43A2846A4F8F88AFFF766
:102D9000BBF895E8070004F5306383E807003B685B
:102DA00004F63855002B3FF489AC3388062B7FF6A8
:102DB00091AC0621D9F80000044FDFF818A001F00B
:102DC00025FB69AE08E000BFA06E0208546D020842
:102DD000703F01206C3F0120634A03460A212846C8
:102DE00012F0DCF90723C4F80C5B31461198ADF8FA
:102DF000A83169970BF09EFF1199584608F0E4FC42
:102E000032234FF48372B62100931298FFF749F8EA
:102E1000C8464FF0FF330DF5CC790025C4F8403B90
:102E20004846A4F8445BFFF76FF899E8070004F6FA
:102E30004C3383E80700DAF8003004F64C59002BD5
:102E40003FF43CAC494B1B88042B7FF643AC042178
:102E5000D8F8000001F0DAFA434A03460A2148464E
:102E600012F09CF93146C4F8589B129869974FF0BC
:102E70000509ADF8A8910BF05DFF1299584608F0CE
:102E8000A3FC1B237F21009309226F231398FFF7D4
:102E900008F84FF0FF32C4F88C2B3046A4F8905B52
:102EA000FFF732F896E8070004F6983383E8070046
:102EB000DAF8003004F55666002B3FF4FFAB2B4BDD
:102EC0001B88022B7FF606AC0221D8F8000001F027
:102ED0009DFA254A03461421304612F05FF9032378
:102EE000C4F8A46B37A91398ADF8E0301E263797C5
:102EF0000BF020FF1399584608F066FC2A46294635
:102F0000149800967723FEF7CCFF194BC4F8103CB9
:102F100003F54C533333C4F8143CA3F5CC43663B60
:102F2000C4F8183C03F1331303F54C53C4F81C3CAC
:102F30000398A4F80C9CFEF7BAFE04F68853C4F874
:102F4000D83B772319462D22039884F8D55B84F863
:102F5000025C0096FEF7A5FF5846039908F034FC82
:102F600020466DB0BDE8F08FA06E0208703F0120D2
:102F7000996600FF70477047704730B4C568446871
:102F80006A100346ED0704EB02009B6848BFA25895
:102F900030BC48BFD358184743682BB183682BB95E
:102FA000C06800F001007047184670470120704764
:102FB00010B51021044621F043FA204610BD10B58B
:102FC0004FF49071044621F03BFA204610BD983032
:102FD000884208B505D10EF005FCBDE8084000F0B8
:102FE000B1BB08BD70B5036804469B6B1546984796
:102FF000236829462046DB6BBDE870401847000077
:103000002DE9F74F0446A046002510F0E7FB614B81
:10301000E56348F8403B04F16C074046FEF760FF6B
:103020004FF6FF762622294638460DF1080AADF8FC
:10303000046022F084FD3846FEF70EFF564BE3662F
:103040003AF8043DA4F89230514684F8946038462A
:1030500004F198060BF0CAFF3046FEF7FDFEFF2391
:1030600084F8C530012304F1CC0984F8BC304B4B03
:10307000C4F89830C4F8C05084F8C450C4F8C8509C
:103080004846FEF72DFF464BC4F8CC302A46294669
:103090004846C4F8F850A4F8FC50C4F80051C4F8ED
:1030A0000451C4F80851C4F80C51FEF7EDFE49462E
:1030B000304608F089FB3B4BC4F810313A4BC4F85A
:1030C00018312A4629464046C4F81441C4F81C5118
:1030D000FEF7DAFE4FF4A0724046F021FFF782FFC0
:1030E00004F1040B4FF07F43A3664146584608F0B5
:1030F0006BFB2A4629463846FEF7C6FE0223514698
:103100003846ADF804300BF071FF3946584608F0E8
:103110005BFB2A4629464846FEF7B6FE6E22F021A2
:103120004846FFF75FFF0523A4F8FC301F4BC4F8A7
:10313000003103F54C533333C4F80431A3F5CC43C9
:10314000663BC4F8083103F1331303F54C53C4F85C
:103150000C313046FEF7ABFDD4F8983084F8C550FA
:103160003046D3F89030984704F58873C4F8C830D7
:1031700029463046D222FEF787FE6E223046F021E5
:10318000FFF730FF5846314608F01EFB204603B0DB
:10319000BDE8F08F2C700208E08B0208F46D020885
:1031A000788B020814700208CF2F0008996600FF80
:1031B00070477047704730B4C56844686A1003466A
:1031C000ED0704EB02009B6848BFA25830BC48BF23
:1031D000D358184743682BB183682BB9C06800F0F7
:1031E00001007047184670470120704710B5102144
:1031F000044621F025F9204610BD10B54FF4E071CA
:10320000044621F01DF9204610BD00F58870884263
:1032100008B505D10EF0E6FABDE8084000F082BA24
:1032200008BD00002DE9F04F04468BB0A2460025F2
:1032300010F0D4FAA34BE5634AF8403B5046FEF742
:103240004FFE04F16C0304F1980818464FF6FF791D
:103250000393FEF745FE2622294640460DF1280B32
:10326000ADF8209022F06BFC4046FEF7F5FD964B42
:10327000C4F898303BF8083DA4F8BE3004F1C40708
:10328000404684F8C09059460BF0B0FE26222946ED
:10329000384622F054FC3846FEF7DEFD8B4BC4F86E
:1032A000EC304FF47F03C4F8F83004F58876884B8F
:1032B000A4F8F090A4F80491A4F80691C4F8C430DE
:1032C000C4F8F45084F8FC5084F8FD50A4F8005180
:1032D000A4F80251C4F80851C4F80C513046FEF766
:1032E000BBFD4FF0010384F834317A4BC4F8103140
:1032F00004F5A27384F83D911846C4F8385184F857
:103300003C51C4F840510293FEF7EAFD724BC4F8F9
:1033100044312A4629460298C4F87051A4F87451E1
:10332000C4F87851C4F87C51C4F88051C4F8845171
:10333000FEF7AAFD0299304608F046FA674BC4F83A
:10334000B031674BC4F8B8314FF4A0732A460093EC
:103350002946F0235046C4F8B441C4F8BC51FEF7E6
:10336000A0FD04F104094FF07F43A366514648468F
:1033700008F02AFA4FF4A0732A4600932946F02356
:103380000398FEF78EFD574BC4F8943003994846D6
:1033900008F01AFA2A4640462946FEF775FD4FF016
:1033A000010340465946ADF820300BF01FFE414660
:1033B000484608F009FA202390220093352176230D
:1033C0003846FEF76EFD4FF0FF33C4F8F430D4F802
:1033D000C430A4F8F8500DF110084046D3F88430FA
:1033E0003946984798E8070004F5807383E807009A
:1033F0003D4B1B6804F5C4782BB93C4B3C4A60211B
:103400003C4822F01BF93C4B1B881BB93B4B384A0C
:103410006121F5E73A4B2946186800F0F7FF394A71
:1034200003461421404611F0B9FE284B0893594633
:103430004FF001033846C4F80C81ADF824300BF08E
:1034400079FC39464846592708F0BEF92A462946EC
:1034500002980097F023FEF724FD0523A4F87431A9
:10346000294BC4F8783103F54C533333C4F87C311D
:10347000A3F5CC43663BC4F8803103F1331303F565
:103480004C53C4F884313046FEF711FCD4F81031A7
:1034900084F83D513046D3F89030984704F5D873FE
:1034A000C4F84031E722F023294630460097FEF762
:1034B000F8FC4846314608F087F920460BB0BDE8D5
:1034C000F08F00BF78700208E08B0208546D02088C
:1034D000646D0208F46D0208788B020860700208BF
:1034E0000B320008CFF3FAFF6C3F0120A36E0208F5
:1034F000A4700208E56E0208703F0120266F0208E2
:10350000783F0120A06E0208996600FF704770475F
:1035100070474160704770470123037270477047DE
:103520007047704710B4C468416862100346E407EE
:1035300001EB02009B6848BF8A585DF8044B48BF06
:10354000D358184743682BB183682BB9C06800F083
:1035500001007047184670470120704710B50C21D4
:10356000044620F06DFF204610BD10B54FF4AE713B
:10357000044620F065FF204610BD10B5102104461A
:1035800020F05EFF204610BD10B54021044620F01B
:1035900057FF204610BD10B50EF024F90368BDE8B2
:1035A0001040DB6B184770B5044690F8390094F86A
:1035B00038300130C0B2984284F8390005D901236F
:1035C0002372002384F8393070BDB4F93A20002109
:1035D00010F0B6FA83B213F0010206D04FF6FF7175
:1035E0000028D8BF0A46981800B2238AC01AA087BC
:1035F00060680368DB69984705464DB1A988A38FC9
:1036000019442B6828461B6B09B29847AD69F4E74B
:1036100060680368BDE870405B691847054B1B781C
:103620003BB143682BB11A6800F10C01526E184689
:1036300010477047113F012070B5037A0546BBB9AA
:1036400040680368DB69984704464CB1A1886B8FDA
:10365000C91A236820461B6B09B29847A469F4E78E
:103660006868036805F10C011B6EBDE870401847DF
:1036700070BD0000044B1B6893F858200AB1D86C49
:1036800000B99868704700BF143F0120F8B50446A0
:1036900017460E460EF068F9164BC4F854711C60BC
:1036A000154B2360154BC4F84431154BC4F85861D1
:1036B00000251868C4F83C51C4F84051C4F848517A
:1036C000C4F84C51C4F85051036801219B689847D5
:1036D000284600F061FEFFF7CDFF18F0AAFDFFF7C6
:1036E000C9FF18F021FEFFF7C5FF18F029FE20469C
:1036F000F8BD00BF683F0120FC700208E4700208BA
:10370000143F0120064BC0F84C310023C0F8503163
:1037100000F5A273C0F84801C0F84031704700BFFF
:10372000E5380008064BC0F84C310023C0F8503192
:1037300000F5A273C0F84801C0F84031704700BFDF
:10374000293C0008064BC0F84C310023C0F850312A
:1037500000F5A273C0F84801C0F84031704700BFBF
:10376000893D0008064BC0F84C310023C0F85031A9
:1037700000F5A273C0F84801C0F84031704700BF9F
:10378000E93E0008064BC0F84C310023C0F8503128
:1037900000F5A273C0F84801C0F84031704700BF7F
:1037A0004D3A00082DE9F04707469068DDF820A063
:1037B000994603681B6A884615469847B0F5907F7E
:1037C00005D2424B424AA321424821F037FF6868A4
:1037D00003681B6A98470F2803D83F4B3C4AA42133
:1037E000F2E7E86803681B6A98470B2803D83B4B4D
:1037F000374AA521E8E70DF0F5FF04300EF017F881
:10380000D9F8000010B10368DB689847D9F80000C8
:1038100010B103681B689847386810B103685B698A
:103820009847D8F8000010B103685B68984738687B
:1038300010B103681B689847D8F8000010B10368FE
:103840009B689847E868036800215B6A98470446CC
:1038500020B1002343600372214B0360A868036812
:1038600000215B6A9847064608B1FEF701F96868CF
:10387000036800215B6A9847054610B13146FEF7A0
:10388000CFF8C9F80040C8F800503E60E5B12B1DE4
:10389000CAF80030C5F808A03368F5633046DB6825
:1038A00098472B6828461B6898472146304610F0F9
:1038B00041F9236820461B699847236820465B69C5
:1038C00098472846BDE8F0872B46E1E7907102084B
:1038D000A57302081E7202085F72020802730208D2
:1038E0005071020807B5D0F858310093D0F8542130
:1038F000044B00F59E710448FFF754FF03B05DF8D8
:1039000004FB00BF5C3F0120583F01202DE9F04738
:1039100007469068DDF820A0994603681B6A884630
:1039200015469847B0F5E07F05D2424B424AA321A5
:10393000424821F083FE686803681B6A98470F2895
:1039400003D83F4B3C4AA421F2E7E86803681B6AAE
:1039500098470B2803D83B4B374AA521E8E70DF0E1
:1039600041FF04300DF063FFD9F8000010B1036887
:10397000DB689847D9F8000010B103681B689847C6
:10398000386810B103685B699847D8F8000010B137
:1039900003685B689847386810B103681B689847EC
:1039A000D8F8000010B103689B689847E86803687E
:1039B00000215B6A9847044620B1002343600372EC
:1039C000214B0360A868036800215B6A984706469C
:1039D00008B1FEF775F86868036800215B6A9847CC
:1039E000054610B13146FEF79DF8C9F80040C8F809
:1039F00000503E60E5B12B1DCAF80030C5F808A0A4
:103A00003368F5633046DB6898472B6828461B68A7
:103A100098472146304610F08DF8236820461B69F0
:103A20009847236820465B6998472846BDE8F08799
:103A30002B46E1E790710208E77602081E72020841
:103A40005F720208027302085071020807B5D0F8CD
:103A500058310093D0F85421044B00F59E7104486E
:103A6000FFF754FF03B05DF804FB00BF5C3F01208B
:103A7000583F012003685B6A184700002DE9F041B8
:103A800005460026164B4660067245F80C3B044678
:103A900028460F460AF0B4FD124B84F838701B78A4
:103AA00084F83960A68723B9012323722046BDE834
:103AB000F0810D4B0D4FB3F90080E3682661B7F933
:103AC00000109B6B28469847E3684146DB6B28460D
:103AD000984728460AF00FFD3B885B426387E5E77D
:103AE00074710208113F0120083F0120063F0120A8
:103AF0002DE9F04707469068DDF820A09946036855
:103B00001B6A884614469847B0F5907F05D2414B12
:103B1000414AA321414821F091FD606803681B6A76
:103B200098470F2803D83E4B3B4AA421F2E7E068B0
:103B300003681B6A98473F2803D83A4B364AA521A9
:103B4000E8E70DF04FFE04300DF071FED9F80000EB
:103B500010B10368DB689847D9F8000010B103681A
:103B60001B689847386810B103685B699847D8F8B4
:103B7000000010B103685B689847386810B10368AB
:103B80001B689847D8F8000010B103689B689847F5
:103B90000021E068FFF76EFF054610B11421FFF722
:103BA0006DFFA068036800215B6A9847064608B16C
:103BB000FDF75EFF6068036800215B6A9847044672
:103BC00010B13146FDF72CFFC9F80050C8F800408D
:103BD0003E60E4B1231DCAF80030C4F808A0336881
:103BE000F4633046DB689847236820461B68984793
:103BF000294630460FF09EFF2B6828461B699847E0
:103C00002B6828465B6998472046BDE8F087234625
:103C1000E1E700BF90710208A97402081E72020851
:103C20005F7202080273020807B5D0F8583100939A
:103C3000D0F85421044B00F59E710448FFF758FF5B
:103C400003B05DF804FB00BF5C3F0120583F01203A
:103C50002DE9F04707469068DDF820A099460368F3
:103C60001B6A88461446984740F69753984205D8F1
:103C7000404B414AA321414821F0E0FC60680368C1
:103C80001B6A98470F2803D83D4B3B4AA421F2E713
:103C9000E06803681B6A98473F2803D8394B364AC7
:103CA000A521E8E70DF09EFD04300DF0C0FDD9F828
:103CB000000010B10368DB689847D9F8000010B124
:103CC00003681B689847386810B103685B699847B8
:103CD000D8F8000010B103685B689847386810B1E5
:103CE00003681B689847D8F8000010B103689B6808
:103CF00098470021E068FFF7BDFE054610B114218A
:103D0000FFF7BCFEA068036800215B6A984706467F
:103D100008B1FDF7EFF96068036800215B6A984716
:103D2000044610B13146FDF75FFEC9F80050C8F8EF
:103D300000403E60E4B1231DCAF80030C4F808A07A
:103D40003368F4633046DB689847236820461B6875
:103D50009847294630460FF0EDFE2B6828461B6930
:103D600098472B6828465B6998472046BDE8F0874E
:103D70002346E1E790710208C87502081E72020826
:103D80005F7202080273020807B5D0F85831009339
:103D9000D0F85421044B00F59E710448FFF758FFFA
:103DA00003B05DF804FB00BF5C3F0120583F0120D9
:103DB0002DE9F04707469068DDF820A09946036892
:103DC0001B6A884614469847B0F5E07F05D2414B00
:103DD000414AA321414821F031FC606803681B6A15
:103DE00098470F2803D83E4B3B4AA421F2E7E068EE
:103DF00003681B6A98473F2803D83A4B364AA521E7
:103E0000E8E70DF0EFFC04300DF011FDD9F80000EB
:103E100010B10368DB689847D9F8000010B1036857
:103E20001B689847386810B103685B699847D8F8F1
:103E3000000010B103685B689847386810B10368E8
:103E40001B689847D8F8000010B103689B68984732
:103E50000021E068FFF70EFE054610B11421FFF7C0
:103E60000DFEA068036800215B6A9847064608B10A
:103E7000FDF726FE6068036800215B6A98470446E8
:103E800010B13146FDF74EFEC9F80050C8F80040A9
:103E90003E60E4B1231DCAF80030C4F808A03368BE
:103EA000F4633046DB689847236820461B689847D0
:103EB000294630460FF03EFE2B6828461B6998477E
:103EC0002B6828465B6998472046BDE8F087234663
:103ED000E1E700BF90710208EB7702081E7202084A
:103EE0005F7202080273020807B5D0F858310093D8
:103EF000D0F85421044B00F59E710448FFF758FF99
:103F000003B05DF804FB00BF5C3F0120583F012077
:103F100013B5002249B102AB019203F8052D0268E6
:103F2000946801AAA04702B010BD0846FBE7C0890B
:103F30007047008A7047C088704780887047807AD1
:103F400000F07F007047807AC009704700207047FA
:103F50009FED010A704700BF00000000406A7047F3
:103F6000806A7047704710B58A880B884C88C16991
:103F7000D20A43EA044351F82200184410BD10B598
:103F8000C2B1137BB3B1547BD27A240204F4E0644F
:103F90001443026A98B202EB840213888B4202D166
:103FA00092F9020010BD05D8013880B20432002811
:103FB000F3D1F7E70020F5E710B52C21044620F0F7
:103FC0003FFA204610BD000030B58BB00446BDF866
:103FD00060500895BDF85C5007959DF850500695C7
:103FE0009DF84C5005959DF8485004959DF8445017
:103FF00003959DF8405002959DF83C500195BDF801
:10400000385000950FF0F0F9064B2360159BE361E3
:10401000169B2362199B63621A9BA36220460BB016
:1040200030BD00BF1479020830B5174D2C78BFF3AE
:104030005B8F14F001048FB023D1284620F0D8F90B
:10404000F8B1124B12490594CDE90B43114B08937B
:10405000114B1248CDE9064301220423CDE9033276
:1040600014230A220093CDE90944CDE90144FFF766
:10407000ABFF284620F0C8F9094A0A49074820F052
:10408000DAF906480FB030BDD4110020AC7D02082B
:10409000309A02082497020810970208D8110020CD
:1040A00000000020653F000830B5174D2C78BFF3A5
:1040B0005B8F14F001048FB023D1284620F098F9CB
:1040C000F8B1124B12490594CDE90B43114B0893FB
:1040D000114B1248CDE9064301220423CDE90332F6
:1040E00019230A220093CDE90944CDE90144FFF7E1
:1040F0006BFF284620F088F9094A0A49074820F052
:104100009AF906480FB030BD04120020AC7D0208B9
:10411000BC9A020828970208189702080812002083
:1041200000000020653F000830B5174D2C78BFF324
:104130005B8F14F001048FB022D1284620F058F98B
:10414000F0B1124B0893124B12490594CDE9064386
:1041500001220423CDE903320A231A460093CDE954
:104160000B44CDE90944CDE901440B48FFF72CFF8E
:10417000284620F049F9094A0949074820F05BF927
:1041800005480FB030BD00BF341200200C97020864
:104190001C970208489B02083812002000000020EB
:1041A000653F000830B5174D2C78BFF35B8F14F0D6
:1041B00001048FB023D1284620F01AF9F8B1124B30
:1041C0000893124B12490594CDE9064301220423BA
:1041D000CDE903321E230A220093CDE90B442023AC
:1041E000CDE90944CDE901440A48FFF7EDFE284630
:1041F00020F00AF9084A0949064820F01CF9054848
:104200000FB030BD641200201497020820970208F6
:1042100058A102086812002000000020653F000835
:1042200010B5002404600C6014601C6010BD704761
:1042300010B50421044620F003F9204610BD08B54E
:10424000032913D8DFE801F002060A0E00F018F87F
:10425000006808BD00F014F84068FAE700F010F8B4
:104260008068F6E700F00CF8C068F2E70020F0E79D
:1042700000487047E07D0208032070472420704703
:10428000004870479412002010B5FFF7CDFE064C91
:104290002060FFF787FF6060FFF746FFA060FFF731
:1042A00003FFE06010BD00BF9412002000207047A3
:1042B000002070470EB403B503AB002153F8042B64
:1042C00001930EF017FB02B05DF804EB03B07047EA
:1042D0000CB407B504AB53F8042B01930EF00AFBA2
:1042E00003B05DF804EB02B07047000010B5436CFA
:1042F000044673B3038F2BB9184B194AC5211948CB
:1043000021F09CF9C38E00EB43035B8C0BB310F0E0
:104310009CF9238F012B03D8134B144ACB21EEE7D2
:10432000E28E531C9BB2092B194688BFA3F10A01E8
:1043300004EB410140F63F10498C814209D10A2B20
:1043400004EB420228BF002304EB4303508C588443
:1043500051842046BDE8104010F07AB81C7E020857
:10436000497F0208257E0208697E0208777E0208DE
:1043700010F035B810B586B002AC84E806001A46D5
:104380000AAB05930193099B00932146089B0CF00F
:10439000C7FD06B010BD000038B5D8B9114B1248A2
:1043A0001B681249BBB11A689C681A4402605A68BB
:1043B0001A440A601C446CB10D4B00221A80FFF7AE
:1043C0005FFF0546FFF75AFF0A4B1C600A4B1D6052
:1043D0000A4B188038BD0A4B03600A4B0B600A4B2E
:1043E0001C68E8E7A4120020A8120020AC120020EC
:1043F000B01200206C3F0120743F0120703F01206B
:1044000030B2090854B109082CB20908044B1B68E2
:1044100053F82100034B1B6803EB4000704700BFBB
:10442000AC120020A8120020012380F8781080F838
:104430007930704770470020704700004164034B9B
:10444000003118BF01211970704700BF113F0120D2
:10445000704700207047836B0BB1084618477047C0
:104460004FF6FF707047406803689B6918477047B4
:1044700070477047704700207047B1F9043083805F
:1044800001207047704780F82610704790F826008A
:10449000704710B50022B1F90840B1F90A10028046
:1044A00042808480C18010BD0022028042808280D0
:1044B000C28070470177704780ED080A704780F826
:1044C0002410704780F825107047012070479830FD
:1044D00070478C307047843070470000034B902247
:1044E00083F85A2383F85823704700BF00E100E0A7
:1044F000094A0A49D3680A48C3F30A03013B9BB23D
:104500000B801169C1F30A01013901801364536BF7
:1045100043F001035363704700680140BA12002062
:10452000B8120020014B986A704700BF84680140B0
:10453000024B0122996243F8602C70478468014065
:104540007047704710B52C2104461FF079FF2046B4
:1045500010BD10B5BC2104461FF072FF204610BDEF
:1045600010B531B90A4B0B4A0B4840F2FF2121F03C
:1045700065F8C0E90F120032084918BF01220A701D
:1045800002681946D2F89020BDE81040104700BFDD
:10459000F5810208E88202082D820208103F0120FE
:1045A00008B5094B1B888B4203D8084B1B889342E4
:1045B00005D9074B074A0848A32121F03FF8074BCC
:1045C0001980074B1A8008BD063F0120083F0120D3
:1045D00092810208A58202082D8202080C3F012068
:1045E0000E3F012070B5044607F0D9FB23689D6E8D
:1045F0000DF0F8F801462046A8472368054AD3F88D
:104600008C502046AC460023A2F51631BDE8704020
:10461000604700BF005802D007F0A8BB07F0B2BB4C
:1046200007F06EBB07F0DDBC10B5044608F034F9A6
:1046300023682046D3F8BC30BDE81040184790F8F6
:104640007A301BB1406803681B68184718467047EA
:1046500010B590F8784090F834100C4B8C421A78D2
:1046600009D03AB90A4A0B491488088810800C808E
:1046700001221A7010BD002AFCD0054A0549148891
:10468000088810800C800022F3E700BF0A3F012059
:10469000063F0120083F0120034B4FF080629A60E3
:1046A0004FF080729A60704700E100E0084B4FF0D5
:1046B0008062C3F88820BFF34F8FBFF36F8F4FF036
:1046C0008072C3F88820BFF34F8FBFF36F8F70479E
:1046D00000E100E070B500238380114D114B0360B1
:1046E0002A6892F85810064609B1D06C00B9906853
:1046F0000368DB6A98472B68B0FA80F4D86C6409C9
:1047000028B10368DB6A9847002808BF01242CB948
:10471000054B064A06482C2120F090FF304670BD1C
:10472000143F0120FC7F0208D88002086C82020836
:104730003681020870B5284E3578BFF35B8F15F0CF
:10474000010547D130461FF053FE002842D0234CCC
:10475000234B256104F13400C4E90035C4E9025556
:10476000E58425856585A5850EF081FD04F1580059
:1047700009F09EFE1B4BA36520461B4B40F8843B73
:10478000FFF7A8FF194BC4F884302433C4F88C30E9
:104790004FF4C803C4E928350023C4F8AC30C4F88A
:1047A000B030C4F8B430C4F8B8303046104BC4F858
:1047B0009050A4F89C5084F8A85084F8A95084F82C
:1047C000AA50C4F898301FF01FFE0A4A0A49204632
:1047D0001FF031FE014870BDB4120020BC12002051
:1047E0004C8902081C800208948002080089020893
:1047F000E0880208000000204145000838B5184C48
:1048000023685BB3174B184A1B6C11888B4216D177
:10481000164B198804F038FA236893F86A200025AB
:10482000013283F86A2083F87C5000F083FA206814
:1048300008F032F82846BDE8384000F0BBBC04F070
:1048400023FA2468236820461B6A9847012384F8CA
:104850007C300020BDE8384000F0D6BC38BD00BF39
:10486000143F012000680140BA120020B812002055
:1048700003685B6C18470120704703689B6A184700
:10488000FEE7000082B0002301930E4B1A6B42F446
:1048900000021A631A6B02F400020192019A1A696B
:1048A00042F400021A611A6922F400021A61064BEE
:1048B000064A1A61064A5A61064B4FF080629A60B6
:1048C00002B0704700380240044C0120E148000863
:1048D0008148000800E100E040F2EF30704700003E
:1048E000024B1B68586803685B691847143F012036
:1048F00008B50B280BD8DFE800F01206100A0A0AE8
:104900000A0808080808012008BD0520FCE7054B37
:10491000054A06486F2120F091FE0020F4E70220AE
:10492000F2E700BF50830208228402086B8302086A
:1049300008B50A2809D8DFE800F010060E080808B4
:10494000080606060600012008BD054B054A064874
:10495000902120F073FE0020F6E70220F4E700BF6C
:10496000508302086C8402086B830208F8B50C4679
:10497000487FFFF7BDFFA77F05463846FFF7B8FF22
:1049800006463846FFF7D4FFA38A628BD21A494BFA
:104990001A64A18A628B521A9A61A18A228B521AD6
:1049A0001A615863A18AE28A42EA01425A64226982
:1049B000DA636268DA602268402A70D010D8042A6C
:1049C0003BD0202A6BD0237F45EA0365394B45F461
:1049D0000035DD61617FA27F914267D0364A4BE0AE
:1049E000B2F5807F1BD0B2F5007F23D0802AEAD1B8
:1049F000A068021DDA62227F45EA026545F40035AF
:104A0000DD615E6222695A610278EAB1012A35D01D
:104A10002A4B2B4A2B484FF48D7120F00FFE217F3B
:104A2000294A42EA0162DA61E2681A625E62226938
:104A30005A6120E0217F254AF3E7227F45EA02659B
:104A400045F40035DD61F1E7D9694288501E21F453
:104A50007F4222F0100242EA0022DA610121154B66
:104A6000DA6942F02002DA61DA699206FCD4102297
:104A70009A600029B2D0164A1A60F8BDDA694088F7
:104A8000217F22F47F4222F01002013842F010020E
:104A9000FF3942EA002218BF0121DA61DFE7237FF4
:104AA00045EA036545F40035024BCBE742F201329B
:104AB000E2E700BF00B00240012301003683020894
:104AC000E48302086B8302080A0002000900020066
:104AD0000123020010B5887F0C46FFF729FF1C4B0D
:104AE0005863A18AE28A42EA01425A642269DA637F
:104AF000628BA18A521A1A642268082A16D1A18AE6
:104B0000628B521A9A61A18A628B521A1A61586298
:104B1000217F104A42EA0162DA61E2681A62226980
:104B20005A612269DA600C4A1A6010BD0022D8610D
:104B30001A61E1680A0A480902F4784200F4FC604C
:104B40000243C1F3C4010A439A63044AECE700BF7D
:104B500000B002400900010001230200012303000C
:104B6000054B0360054B4FF08062C3F88820BFF30C
:104B70004F8FBFF36F8F70479C83020800E100E006
:104B800010B50446FFF7ECFF20464FF45A611FF0C2
:104B900057FC204610BD000070B505462C460A4B58
:104BA0000C30002668602E726E7244F8203B602242
:104BB000214607F0C7FF05F55A63E6602434A34297
:104BC000FBD1284670BD00BF9C830208034B1A68C6
:104BD000D207FCD423229A60704700BF00B0024085
:104BE0007047000030B50F4C2568ED07FCD4232535
:104BF0000904A56041F001010225FF2B6563616492
:104C0000E0630AD00849656241EA0363E361074B48
:104C100022626061E060236030BDE561039BA363B5
:104C2000034BF8E700B00240090001000100020058
:104C30000100030030B50E4C2568ED07FCD4232598
:104C40001204A56042F001020225FF2B6563626435
:104C5000E063E16008D01B0643F00213E361054BFB
:104C600065626061236030BD034BE3610123F9E7B6
:104C700000B0024001000200020002FF30B50B4C00
:104C80002568ED07FCD4232512041B06A56043F418
:104C90000033022542F0010265636264E063E16073
:104CA000E361034B65626061236030BD00B0024088
:104CB00001000200012108B50022084605F091FE1E
:104CC0000A4B186028B90A4B0A4A28210A4820F0E2
:104CD000B5FC00220421012005F024FF074B1860D9
:104CE00018B9074B034A2C21F0E708BD7C130020BC
:104CF000B78402086B85020800850208781300203B
:104D000029850208024B4FF0FF31186805F0B4BE48
:104D10007C130020014B186805F0DABE7C130020DC
:104D2000024B0021186805F0A7BE00BF7C130020CD
:104D3000FFF7F0BF03480449006800231A4605F056
:104D40002DBF00BF781300205000002013B5084C81
:104D500000231A4601A9206805F052FF4FF0FF33E7
:104D6000002201A9206805F04BFF02B010BD00BF72
:104D700078130020704770477047704701207047D4
:104D80004020704700EB81100830704700EB811025
:104D9000083070470120704740F69850704740F641
:104DA000985303FB01000830704740F6985303FB0B
:104DB000010008307047012070471020704700EB59
:104DC00001100830704700EB0110083070470846AA
:104DD000FEF798BC10B5034B0360044606F0E0FCF8
:104DE000204610BD0C86020810B50446FFF7F2FFFE
:104DF000204648211FF024FB204610BD10B5034B70
:104E00000360044606F0CCFC204610BDD88502089D
:104E100010B50446FFF7F2FF20464FF45A611FF029
:104E20000FFB204610BD000010B5034B0360044685
:104E300006F0B6FC204610BDA485020810B5044655
:104E4000FFF7F2FF204618211FF0FAFA204610BDA6
:104E500010B5084B0360044600F6CC50FFF7BAFFCC
:104E600004F12C00FFF7CAFF04F11400FFF7DCFF88
:104E7000204610BD4086020810B50446FFF7E8FF43
:104E8000204640F674711FF0DBFA204610BD00008A
:104E90002DE9F341FFF7ECF90546FFF7EDF90024A2
:104EA0000146234628462246009410F01DFA284B5E
:104EB000284A1A602046FFF76FFA274B274A284DE9
:104EC0009A60284810F078F92B78BFF35B8FDB07E6
:104ED00038D428461FF08CFA002833D0224C234BBC
:104EE000236004F6186604F1140004F12C0804F69B
:104EF000CC576060C4F80880E760266106F052FC79
:104F00001B4B6361404606F04DFC1A4BE36238468A
:104F100006F048FC184BC4F8CC3D04F61460FCF7CE
:104F2000B3FD224604F614613046FCF739FE3046E4
:104F3000FEF7E8FB28461FF067FA104A10492046A2
:104F40001FF079FA0F4802B0BDE8F04100F0FAB85E
:104F5000783F01203C31002040310020F822002021
:104F60008013002054000020841300204086020893
:104F7000A4850208D88502080C86020800000020DB
:104F8000514E0008B830002070470000014800F082
:104F9000E7B800BFB830002010B5042104461FF068
:104FA0004FFA204610BD10B58C2104461FF048FA78
:104FB000204610BD10B51C2104461FF041FA2046C2
:104FC00010BD10B5842104461FF03AFA204610BDEA
:104FD0002DE9F041454C464D464F474B47492B6024
:104FE000224628461FF027FA454EDFF854813846FE
:104FF000FFF7D2FD2246434938461FF01CFA3046DF
:1050000015F06EFA2246404930461FF014FA404629
:105010000DF048FE22463D4940461FF00CFA22465C
:105020003B493C481FF007FA3B483C498166002356
:1050300001220421C0E90176C560C0E90433C0E95A
:105040000633C0E90833038580F82A30C36203863B
:10505000C0E90E33C0E9103380F8483080F84920A9
:1050600080F84A3080F84B30C0E91333436580F84C
:105070005830C0E91733436680F86C3080F86D30E3
:1050800080F86E3080F86F3080F87D105021A0F8E5
:105090007E101A21A0F880101421A0F88210204957
:1050A000204D0860F02129801F4D80F87030298044
:1050B0001E4D43674FF4A07129801D4D80F8783054
:1050C00029801C4980F879300B7080F87C301A4BAD
:1050D00080F87A2080F87B2080F834200360224614
:1050E0001649BDE8F0411FF0A6B900BF000000203E
:1050F000142300201823002040870208754D000863
:1051000040310020614B0008774D0008794D0008C0
:105110002F42000854000020B83000200100000198
:10512000143F0120063F01200C3F0120083F0120D1
:105130000E3F01200A3F0120548602087B4D0008E3
:10514000F822002010B50446FFF74CFA2368034903
:10515000D3F890302046BDE81040184700B004D086
:1051600008B503680446D3F884309847236820467E
:10517000DB6F9847FFF7EAFD236820465B6F98478F
:10518000292000F035FDFFF7E1FD236820465B6F25
:105190009847F8E7FFF7C6B9FFF7CAB9FFF740BA73
:1051A000FFF79CB9FFF778BAFFF780BAFFF7A0B90D
:1051B00006F0A0BD032821D8DFE800F0020B121989
:1051C0000F4B1A68B2FA82F2520904210D4802F01C
:1051D000CBBD0B4B5A68B2FA82F252090821F5E7AF
:1051E000074B9A68B2FA82F252091021EEE7044B9B
:1051F000DA68B2FA82F252092021E7E7704700BF6D
:10520000CC31002000100240032821D8DFE800F054
:10521000020B12190F4B1A68003218BF0122042129
:105220000D4802F0A1BD0B4B5A68003218BF012295
:105230000821F5E7074B9A68003218BF01221021B8
:10524000EEE7044BDA68003218BF01222021E7E7BD
:10525000704700BFCC3100200010024003280DD859
:10526000DFE800F00206080A0421054802F081BDCB
:105270000821FAE71021F8E72021F6E7704700BF80
:105280000010024008B5032811D8DFE800F0020A38
:105290000C0E0421074802F061FD431E584258419C
:1052A00008BD0821F6E71021F4E72021F2E70020ED
:1052B000F3E700BF0010024070B5084D002401263E
:1052C000E0B2FFF7DFFF28B155F82430012B18BFFB
:1052D00045F824600134052CF2D170BDCC3100209A
:1052E00038B50C4B0C4C18800C4B8220198063682D
:1052F000984740F6110398420AD1094D23682C6063
:10530000822098472B688220DB689847002038BDB0
:105310000120FCE7DC31002070000020DE3100209D
:10532000E03100204FF4A071F020FFF7D9BF00005A
:10533000F7B5394D2B6804461B698220984780B227
:10534000208000285AD02B680DF106025B6901A964
:1053500082209847314B1B78002B57D0BDF8062090
:1053600040F674639A424BD9ADF80630BDF806207A
:105370009B1AADF80630BDF806200B23B2FBF3F202
:1053800032B1274B1B8893423CBF03F1FF3292B2EC
:10539000BDF8043040F6B8318B4295BFC3F5716358
:1053A000C3F56D630E330833ADF80430BDF8041057
:1053B0000F23B1FBF3F131B11A4B1B888B423CBF79
:1053C00003F1FF3189B2184E184D30682F6883B24F
:1053D000814288BFCB1AB8B298BF5B1ABA428CBF61
:1053E000101A801A9BB280B20344052BC8BF3160EB
:1053F0003368C8BF2A6063802B68A38003B0F0BD08
:10540000B32A9CBFB422ADF80620AFE7BDF8063042
:10541000A3F5B473ADE700BFE0310020F031002008
:10542000DE310020DC310020E4310020E8310020B2
:1054300037B568460D461446FFF77AFFBDF8000001
:1054400030B1BDF802302B60BDF80430236001207C
:1054500003B030BD054BD3F8882042F47002C3F886
:1054600088204FF000629A60704700BF00ED00E0B6
:1054700070B588B000230293204B1A6C42F01002E2
:105480001A641B6C03F010030293064601A903A8DB
:10549000029B01F011FA069B4BBB01F0EDF9184C91
:1054A000184B236040F2E733E360174BB0FBF3F097
:1054B00001380023606020462361A360A36101F0EE
:1054C0005DFB054680B9204601F016FA054658B93D
:1054D000362002F099F90F2E0DD82A463146362093
:1054E00002F05EF9094B1E60284608B070BD01F05D
:1054F000C3F94000D3E70125F6E700BF00380240BA
:105500007C4901200010004040420F00680000204C
:1055100007B5064B02A91B6821F8020D01220448B9
:1055200002F059FD03B05DF804FB00BF60000020ED
:105530001C4A01207FB5164D164C174E284603F025
:1055400059F8204603F056F80A21284603F0D8F807
:105550000A21204603F0D4F8284603F026F93060EB
:10556000204603F022F90D4A0D49106003463268C7
:1055700001A820F0B1FE01A8FBF77AFC0A2382B251
:1055800001A9084802F065F8642005F01EFAD4E786
:10559000704B0120744A0120BC4A0120444C012078
:1055A0008C870208B84B012030B595B0302200211D
:1055B00008A820F0C4FA1422002103A820F0BFFAA2
:1055C00000241E4B01941A6C42F080521A641B6C2A
:1055D00003F080530193019B194B02941A6842F423
:1055E00040421A601B6803F4404302930122029B6D
:1055F0004FF48033CDE9082302254FF480030821BE
:10560000CDE90E534FF4B473CDE9101308A8042369
:105610001393129500F0B8FE00F024FE0F23CDE99D
:1056200003354FF4A0504FF48053CDE90603052114
:1056300003A8059401F082F815B030BD003802408F
:10564000007000402DE980489BB003F03DFBFFF760
:10565000ABFF142200210DA820F071FA0024C84BE2
:1056600000941A6BC748C84D42F010021A631A6BB7
:1056700002F010020092009A01941A6B42F020028C
:105680001A631A6B02F020020192019A02941A6BBB
:1056900042F080021A631A6B02F080020292029AB0
:1056A00003941A6B42F004021A631A6B02F00402AC
:1056B0000392039A04941A6B42F001021A631A6B64
:1056C00002F001020492049A05941A6B42F002025D
:1056D0001A631A6B02F002020592059A06941A6B7D
:1056E00042F040021A631A6B02F040020692069AD8
:1056F00007941A6B42F008021A631B6B03F008034D
:10570000224607933C21079B02F02EFB0122022137
:105710009E4802F029FB224604219C4802F024FB0B
:1057200022464FF440519A4802F01EFB01263C23CA
:10573000CDE90D360DA903239248109302270F944B
:1057400002F01EFA0DA99148CDE90D76CDE90F447E
:1057500002F016FA04230DA98C48CDE90D36CDE9E7
:105760000F4702F00DFA0DA94FF440538848CDE9D8
:105770000D36CDE90F4702F003FA8648864B0360E9
:1057800003F010FCDFF838C2844B2C62C5E900C37B
:1057900028464FF48043C5E90434C5E90244C5E90D
:1057A000064401F00BFC1021284601F0A2FF21461F
:1057B000284601F0C0FF7A4DDFF808E2AC624FF4F2
:1057C0008273C5E900E34FF400781823C5E9068326
:1057D00028460A23C5E90244C5E90444C5E908444A
:1057E000EB6202F099FB8F232246394667488DF819
:1057F00024308DF8344002F0B7FA32464FF47A7311
:1058000009A9284602F0E7FB4FF47A7332460DA946
:10581000284602F092FD324639465C48614D02F05E
:10582000A3FA9DF83430D32B04BF5F4B1E705F4B3F
:105830000126C5E900364FF0100940230024C5E9D0
:1058400004934FF4C073C5E906344FF40063C5E90F
:1058500008344FF4005302274FF0040A4FF0030BB3
:10586000AB620DA907232846CDE90D73CDE90FA33F
:105870004FF00808C5E9024ACDE911B7139700F0C7
:105880002DFD4FF6FF7209A92846CDE90A86089436
:1058900009960C9400F042FD304603F041FA4FF6B1
:1058A000FF7209A92846CDE90978CDE90B6400F01B
:1058B00035FD4FF6FF7209A92846CDE909B8CDE9B3
:1058C0000BA400F02BFD4FF40C730893089B0C9372
:1058D0004FF6FF7209A92846CDE909A80B9600F0FA
:1058E0001DFD40F26A51284600F036FD3422214663
:1058F0000DEB020020F023F92D4D2E4B2C61C5E954
:1059000000340923C5E905361D23C5E9073B40F2EC
:105910000D1240F24313C5E9092340F2171140F27A
:105920004713C5E90B13C5E90244AC8685F8364038
:10593000284603F0A3F8FF21F022CDE912144FF01E
:1059400005084FF480614FF4A073CDE90E24CDE932
:105950001418CDE916420DA922462846CDE9103784
:10596000154D18930D94ADF864408DF8664003F022
:1059700062F9124B2B601B6898472B6824E000BF2C
:105980000038024000100240C849012000080240CF
:10599000000C0240C04A012000300240A0860100F5
:1059A0001C4A0120484C0120F0310020400100A099
:1059B000C84A012000680140EC3100209800002016
:1059C000005C0040005001403F4DDB6898473F4B72
:1059D000C5E90A47C5E90C442846C5E90034C5E9CC
:1059E000027401F0C3FF3146284602F07FF8384DBB
:1059F000384F4A4621460DA820F0A1F8364B2C61BD
:105A00004FF4803B4FF0007A2846C5E9003BC5F8CB
:105A100008A02C7685F82040EC62AF62EC60EE6165
:105A200085F830406E6102F02DFD0D230DA928464A
:105A3000CDE90D36294D0F9402F0BAFE4A462146B3
:105A40000DA820F07CF8264BC5F808A02846C5E92B
:105A5000003B2C612C7685F82040C5E90A74EC6087
:105A6000EE6185F830406E6102F00CFD0DA928460C
:105A7000CDE90D860F941B4D02F09AFE1A484FF4A3
:105A8000E133C0E900530C23C0E90534C0E9024406
:105A90000461C46101F0ACFD03F095FA03F092FAE1
:105AA00004F01EFF114A1248214604F045FF114B35
:105AB000114A18602146114804F03EFF104B18604F
:105AC00004F020FFFEE700BF044C012000B00240BC
:105AD000704B01200100000F00200140744A01209A
